{
  "_format": "hh-sol-artifact-1",
  "contractName": "CoinFlip",
  "sourceName": "contracts/CoinFlip.sol",
  "abi": [
    {
      "inputs": [
        {
          "internalType": "address",
          "name": "_entropy",
          "type": "address"
        },
        {
          "internalType": "address",
          "name": "_entropyProvider",
          "type": "address"
        }
      ],
      "stateMutability": "nonpayable",
      "type": "constructor"
    },
    {
      "inputs": [],
      "name": "IncorrectSender",
      "type": "error"
    },
    {
      "inputs": [],
      "name": "InsufficientFee",
      "type": "error"
    },
    {
      "anonymous": false,
      "inputs": [
        {
          "indexed": false,
          "internalType": "uint64",
          "name": "sequenceNumber",
          "type": "uint64"
        }
      ],
      "name": "FlipRequest",
      "type": "event"
    },
    {
      "anonymous": false,
      "inputs": [
        {
          "indexed": false,
          "internalType": "bool",
          "name": "isHeads",
          "type": "bool"
        }
      ],
      "name": "FlipResult",
      "type": "event"
    },
    {
      "inputs": [],
      "name": "getFlipFee",
      "outputs": [
        {
          "internalType": "uint256",
          "name": "fee",
          "type": "uint256"
        }
      ],
      "stateMutability": "view",
      "type": "function"
    },
    {
      "inputs": [
        {
          "internalType": "bytes32",
          "name": "userCommitment",
          "type": "bytes32"
        }
      ],
      "name": "requestFlip",
      "outputs": [],
      "stateMutability": "payable",
      "type": "function"
    },
    {
      "inputs": [
        {
          "internalType": "uint64",
          "name": "sequenceNumber",
          "type": "uint64"
        },
        {
          "internalType": "bytes32",
          "name": "userRandom",
          "type": "bytes32"
        },
        {
          "internalType": "bytes32",
          "name": "providerRandom",
          "type": "bytes32"
        }
      ],
      "name": "revealFlip",
      "outputs": [],
      "stateMutability": "nonpayable",
      "type": "function"
    },
    {
      "stateMutability": "payable",
      "type": "receive"
    }
  ],
  "bytecode": "0x608060405234801561001057600080fd5b50604051610b81380380610b818339818101604052810190610032919061011d565b816000806101000a81548173ffffffffffffffffffffffffffffffffffffffff021916908373ffffffffffffffffffffffffffffffffffffffff16021790555080600160006101000a81548173ffffffffffffffffffffffffffffffffffffffff021916908373ffffffffffffffffffffffffffffffffffffffff160217905550505061015d565b600080fd5b600073ffffffffffffffffffffffffffffffffffffffff82169050919050565b60006100ea826100bf565b9050919050565b6100fa816100df565b811461010557600080fd5b50565b600081519050610117816100f1565b92915050565b60008060408385031215610134576101336100ba565b5b600061014285828601610108565b925050602061015385828601610108565b9150509250929050565b610a158061016c6000396000f3fe6080604052600436106100385760003560e01c806325f227751461004457806326eb92df1461006f578063d43f19ed1461008b5761003f565b3661003f57005b600080fd5b34801561005057600080fd5b506100596100b4565b6040516100669190610629565b60405180910390f35b6100896004803603810190610084919061067f565b61018a565b005b34801561009757600080fd5b506100b260048036038101906100ad91906106ec565b610402565b005b60008060009054906101000a900473ffffffffffffffffffffffffffffffffffffffff1673ffffffffffffffffffffffffffffffffffffffff1663b88c9148600160009054906101000a900473ffffffffffffffffffffffffffffffffffffffff166040518263ffffffff1660e01b81526004016101329190610780565b602060405180830381865afa15801561014f573d6000803e3d6000fd5b505050506040513d601f19601f8201168201806040525081019061017391906107e3565b6fffffffffffffffffffffffffffffffff16905090565b60008060009054906101000a900473ffffffffffffffffffffffffffffffffffffffff1673ffffffffffffffffffffffffffffffffffffffff1663b88c9148600160009054906101000a900473ffffffffffffffffffffffffffffffffffffffff166040518263ffffffff1660e01b81526004016102089190610780565b602060405180830381865afa158015610225573d6000803e3d6000fd5b505050506040513d601f19601f8201168201806040525081019061024991906107e3565b6fffffffffffffffffffffffffffffffff16905080341015610297576040517f025dbdd400000000000000000000000000000000000000000000000000000000815260040160405180910390fd5b60008060009054906101000a900473ffffffffffffffffffffffffffffffffffffffff1673ffffffffffffffffffffffffffffffffffffffff166393cbf21783600160009054906101000a900473ffffffffffffffffffffffffffffffffffffffff168660016040518563ffffffff1660e01b815260040161031b9392919061083a565b60206040518083038185885af1158015610339573d6000803e3d6000fd5b50505050506040513d601f19601f8201168201806040525081019061035e9190610886565b905033600260008367ffffffffffffffff1667ffffffffffffffff16815260200190815260200160002060006101000a81548173ffffffffffffffffffffffffffffffffffffffff021916908373ffffffffffffffffffffffffffffffffffffffff1602179055507f7da1b5ae936dfd098f9225db84f0386b7c229bc907fc79f4a89a335d459a33fc816040516103f591906108c2565b60405180910390a1505050565b3373ffffffffffffffffffffffffffffffffffffffff16600260008567ffffffffffffffff1667ffffffffffffffff16815260200190815260200160002060009054906101000a900473ffffffffffffffffffffffffffffffffffffffff1673ffffffffffffffffffffffffffffffffffffffff16146104ae576040517f7d1c29f300000000000000000000000000000000000000000000000000000000815260040160405180910390fd5b600260008467ffffffffffffffff1667ffffffffffffffff16815260200190815260200160002060006101000a81549073ffffffffffffffffffffffffffffffffffffffff021916905560008060009054906101000a900473ffffffffffffffffffffffffffffffffffffffff1673ffffffffffffffffffffffffffffffffffffffff16639371df51600160009054906101000a900473ffffffffffffffffffffffffffffffffffffffff168686866040518563ffffffff1660e01b815260040161057c94939291906108dd565b6020604051808303816000875af115801561059b573d6000803e3d6000fd5b505050506040513d601f19601f820116820180604052508101906105bf9190610937565b90507faa5f1ab59045d4c1f17cf18844e334696d7cb64274519959c41e810a0659f563600060028360001c6105f49190610993565b1460405161060291906109c4565b60405180910390a150505050565b6000819050919050565b61062381610610565b82525050565b600060208201905061063e600083018461061a565b92915050565b600080fd5b6000819050919050565b61065c81610649565b811461066757600080fd5b50565b60008135905061067981610653565b92915050565b60006020828403121561069557610694610644565b5b60006106a38482850161066a565b91505092915050565b600067ffffffffffffffff82169050919050565b6106c9816106ac565b81146106d457600080fd5b50565b6000813590506106e6816106c0565b92915050565b60008060006060848603121561070557610704610644565b5b6000610713868287016106d7565b93505060206107248682870161066a565b92505060406107358682870161066a565b9150509250925092565b600073ffffffffffffffffffffffffffffffffffffffff82169050919050565b600061076a8261073f565b9050919050565b61077a8161075f565b82525050565b60006020820190506107956000830184610771565b92915050565b60006fffffffffffffffffffffffffffffffff82169050919050565b6107c08161079b565b81146107cb57600080fd5b50565b6000815190506107dd816107b7565b92915050565b6000602082840312156107f9576107f8610644565b5b6000610807848285016107ce565b91505092915050565b61081981610649565b82525050565b60008115159050919050565b6108348161081f565b82525050565b600060608201905061084f6000830186610771565b61085c6020830185610810565b610869604083018461082b565b949350505050565b600081519050610880816106c0565b92915050565b60006020828403121561089c5761089b610644565b5b60006108aa84828501610871565b91505092915050565b6108bc816106ac565b82525050565b60006020820190506108d760008301846108b3565b92915050565b60006080820190506108f26000830187610771565b6108ff60208301866108b3565b61090c6040830185610810565b6109196060830184610810565b95945050505050565b60008151905061093181610653565b92915050565b60006020828403121561094d5761094c610644565b5b600061095b84828501610922565b91505092915050565b7f4e487b7100000000000000000000000000000000000000000000000000000000600052601260045260246000fd5b600061099e82610610565b91506109a983610610565b9250826109b9576109b8610964565b5b828206905092915050565b60006020820190506109d9600083018461082b565b9291505056fea2646970667358221220c55b8d92ea73450002320d8d16c3243e33bcd677d520f5a996ef21e484e5520e64736f6c63430008140033",
  "linkReferences": {},
  "deployedLinkReferences": {}
}