{
  "_format": "hh-sol-artifact-1",
  "contractName": "CardsAgainstEntropy",
  "sourceName": "contracts/CardsAgainstEntropy.sol",
  "abi": [
    {
      "inputs": [
        {
          "internalType": "address",
          "name": "_decksAddress",
          "type": "address"
        },
        {
          "internalType": "address",
          "name": "_entropy",
          "type": "address"
        },
        {
          "internalType": "address",
          "name": "_entropyProvider",
          "type": "address"
        }
      ],
      "stateMutability": "nonpayable",
      "type": "constructor"
    },
    {
      "inputs": [],
      "name": "IncorrectSender",
      "type": "error"
    },
    {
      "inputs": [],
      "name": "InsufficientFee",
      "type": "error"
    },
    {
      "anonymous": false,
      "inputs": [
        {
          "indexed": false,
          "internalType": "string",
          "name": "cardJudged",
          "type": "string"
        }
      ],
      "name": "CardJudged",
      "type": "event"
    },
    {
      "anonymous": false,
      "inputs": [
        {
          "indexed": false,
          "internalType": "string",
          "name": "cardPlayed",
          "type": "string"
        }
      ],
      "name": "CardPlayed",
      "type": "event"
    },
    {
      "anonymous": false,
      "inputs": [
        {
          "indexed": true,
          "internalType": "uint256",
          "name": "gameId",
          "type": "uint256"
        }
      ],
      "name": "CardsDealt",
      "type": "event"
    },
    {
      "anonymous": false,
      "inputs": [
        {
          "indexed": false,
          "internalType": "uint64",
          "name": "sequenceNumber",
          "type": "uint64"
        }
      ],
      "name": "FlipRequest",
      "type": "event"
    },
    {
      "anonymous": false,
      "inputs": [
        {
          "indexed": false,
          "internalType": "uint256",
          "name": "randomNumber",
          "type": "uint256"
        }
      ],
      "name": "FlipResultAnswers",
      "type": "event"
    },
    {
      "anonymous": false,
      "inputs": [
        {
          "indexed": false,
          "internalType": "uint256",
          "name": "randomNumber",
          "type": "uint256"
        }
      ],
      "name": "FlipResultQuestions",
      "type": "event"
    },
    {
      "anonymous": false,
      "inputs": [
        {
          "indexed": true,
          "internalType": "uint256",
          "name": "gameId",
          "type": "uint256"
        }
      ],
      "name": "GameCreated",
      "type": "event"
    },
    {
      "anonymous": false,
      "inputs": [
        {
          "indexed": true,
          "internalType": "uint256",
          "name": "gameId",
          "type": "uint256"
        },
        {
          "indexed": true,
          "internalType": "address",
          "name": "winner",
          "type": "address"
        }
      ],
      "name": "GameEnded",
      "type": "event"
    },
    {
      "anonymous": false,
      "inputs": [
        {
          "indexed": true,
          "internalType": "uint256",
          "name": "gameId",
          "type": "uint256"
        }
      ],
      "name": "GameStarted",
      "type": "event"
    },
    {
      "anonymous": false,
      "inputs": [
        {
          "indexed": true,
          "internalType": "address",
          "name": "playerAddress",
          "type": "address"
        }
      ],
      "name": "PlayerJoinedGame",
      "type": "event"
    },
    {
      "anonymous": false,
      "inputs": [
        {
          "indexed": true,
          "internalType": "address",
          "name": "playerAddress",
          "type": "address"
        }
      ],
      "name": "PlayerRegistered",
      "type": "event"
    },
    {
      "inputs": [
        {
          "internalType": "string",
          "name": "_name",
          "type": "string"
        }
      ],
      "name": "createGame",
      "outputs": [
        {
          "internalType": "uint256",
          "name": "",
          "type": "uint256"
        }
      ],
      "stateMutability": "nonpayable",
      "type": "function"
    },
    {
      "inputs": [
        {
          "internalType": "uint256",
          "name": "_gameId",
          "type": "uint256"
        }
      ],
      "name": "getFlipFee",
      "outputs": [
        {
          "internalType": "uint256",
          "name": "fee",
          "type": "uint256"
        }
      ],
      "stateMutability": "view",
      "type": "function"
    },
    {
      "inputs": [
        {
          "internalType": "uint256",
          "name": "_id",
          "type": "uint256"
        }
      ],
      "name": "getGame",
      "outputs": [
        {
          "components": [
            {
              "internalType": "string",
              "name": "name",
              "type": "string"
            },
            {
              "internalType": "uint256",
              "name": "status",
              "type": "uint256"
            },
            {
              "internalType": "string",
              "name": "questionCard",
              "type": "string"
            },
            {
              "internalType": "address[3]",
              "name": "players",
              "type": "address[3]"
            },
            {
              "internalType": "address",
              "name": "winner",
              "type": "address"
            },
            {
              "internalType": "uint256",
              "name": "round",
              "type": "uint256"
            }
          ],
          "internalType": "struct CardsAgainstEntropy.Game",
          "name": "",
          "type": "tuple"
        }
      ],
      "stateMutability": "view",
      "type": "function"
    },
    {
      "inputs": [
        {
          "internalType": "address",
          "name": "_address",
          "type": "address"
        }
      ],
      "name": "getPlayer",
      "outputs": [
        {
          "components": [
            {
              "internalType": "string",
              "name": "username",
              "type": "string"
            },
            {
              "internalType": "uint256",
              "name": "gameId",
              "type": "uint256"
            },
            {
              "internalType": "string[3]",
              "name": "dealtCards",
              "type": "string[3]"
            },
            {
              "internalType": "uint256[3]",
              "name": "cardIndexs",
              "type": "uint256[3]"
            },
            {
              "internalType": "uint256",
              "name": "score",
              "type": "uint256"
            }
          ],
          "internalType": "struct CardsAgainstEntropy.Player",
          "name": "",
          "type": "tuple"
        }
      ],
      "stateMutability": "view",
      "type": "function"
    },
    {
      "inputs": [
        {
          "internalType": "uint256",
          "name": "_id",
          "type": "uint256"
        }
      ],
      "name": "joinGame",
      "outputs": [
        {
          "internalType": "uint256",
          "name": "",
          "type": "uint256"
        }
      ],
      "stateMutability": "nonpayable",
      "type": "function"
    },
    {
      "inputs": [
        {
          "internalType": "uint256",
          "name": "_cardIndex",
          "type": "uint256"
        }
      ],
      "name": "judgeCard",
      "outputs": [],
      "stateMutability": "nonpayable",
      "type": "function"
    },
    {
      "inputs": [
        {
          "internalType": "uint256",
          "name": "_cardIndex",
          "type": "uint256"
        }
      ],
      "name": "playCard",
      "outputs": [],
      "stateMutability": "nonpayable",
      "type": "function"
    },
    {
      "inputs": [
        {
          "internalType": "string",
          "name": "_username",
          "type": "string"
        }
      ],
      "name": "registerPlayer",
      "outputs": [
        {
          "internalType": "address",
          "name": "",
          "type": "address"
        }
      ],
      "stateMutability": "nonpayable",
      "type": "function"
    },
    {
      "inputs": [
        {
          "internalType": "bytes32",
          "name": "userCommitment",
          "type": "bytes32"
        },
        {
          "internalType": "uint256",
          "name": "_gameId",
          "type": "uint256"
        }
      ],
      "name": "requestFlip",
      "outputs": [],
      "stateMutability": "payable",
      "type": "function"
    },
    {
      "inputs": [
        {
          "internalType": "uint64",
          "name": "sequenceNumber",
          "type": "uint64"
        },
        {
          "internalType": "bytes32",
          "name": "userRandom",
          "type": "bytes32"
        },
        {
          "internalType": "bytes32",
          "name": "providerRandom",
          "type": "bytes32"
        },
        {
          "internalType": "uint256",
          "name": "_gameId",
          "type": "uint256"
        }
      ],
      "name": "revealFlip",
      "outputs": [],
      "stateMutability": "nonpayable",
      "type": "function"
    },
    {
      "inputs": [
        {
          "internalType": "uint256",
          "name": "_id",
          "type": "uint256"
        },
        {
          "internalType": "uint256",
          "name": "_randomNumber",
          "type": "uint256"
        },
        {
          "internalType": "uint256",
          "name": "_cardsPerPlayer",
          "type": "uint256"
        }
      ],
      "name": "startGame",
      "outputs": [],
      "stateMutability": "nonpayable",
      "type": "function"
    }
  ],
  "bytecode": "0x608060405260006005553480156200001657600080fd5b5060405162008afb38038062008afb83398181016040528101906200003c9190620001f6565b826000806101000a81548173ffffffffffffffffffffffffffffffffffffffff021916908373ffffffffffffffffffffffffffffffffffffffff16021790555081600160006101000a81548173ffffffffffffffffffffffffffffffffffffffff021916908373ffffffffffffffffffffffffffffffffffffffff16021790555080600260006101000a81548173ffffffffffffffffffffffffffffffffffffffff021916908373ffffffffffffffffffffffffffffffffffffffff1602179055506040516200010c906200017e565b6200011790620002b3565b604051809103906000f08015801562000134573d6000803e3d6000fd5b50600460006101000a81548173ffffffffffffffffffffffffffffffffffffffff021916908373ffffffffffffffffffffffffffffffffffffffff160217905550505050620002ea565b612a0880620060f383390190565b600080fd5b600073ffffffffffffffffffffffffffffffffffffffff82169050919050565b6000620001be8262000191565b9050919050565b620001d081620001b1565b8114620001dc57600080fd5b50565b600081519050620001f081620001c5565b92915050565b6000806000606084860312156200021257620002116200018c565b5b60006200022286828701620001df565b93505060206200023586828701620001df565b92505060406200024886828701620001df565b9150509250925092565b600082825260208201905092915050565b7f4e46540000000000000000000000000000000000000000000000000000000000600082015250565b60006200029b60038362000252565b9150620002a88262000263565b602082019050919050565b60006040820190508181036000830152620002ce816200028c565b90508181036020830152620002e3816200028c565b9050919050565b615df980620002fa6000396000f3fe60806040526004361061009c5760003560e01c80638a7acea2116100645780638a7acea214610189578063a11d6ba9146101b2578063a2f77bcc146101db578063b3446f8514610218578063ebdfdc8214610255578063efaa55a0146102925761009c565b80631f3a62a8146100a157806323d81751146100bd5780632c31d085146100e65780632ebc05041461010f5780635c12cd4b1461014c575b600080fd5b6100bb60048036038101906100b69190614255565b6102cf565b005b3480156100c957600080fd5b506100e460048036038101906100df9190614295565b6105db565b005b3480156100f257600080fd5b5061010d600480360381019061010891906142c2565b611843565b005b34801561011b57600080fd5b506101366004803603810190610131919061445b565b611a3f565b60405161014391906144b3565b60405180910390f35b34801561015857600080fd5b50610173600480360381019061016e919061452c565b611c2c565b60405161018091906147b6565b60405180910390f35b34801561019557600080fd5b506101b060048036038101906101ab9190614295565b611c44565b005b3480156101be57600080fd5b506101d960048036038101906101d49190614818565b61262c565b005b3480156101e757600080fd5b5061020260048036038101906101fd9190614295565b612a36565b60405161020f91906149bb565b60405180910390f35b34801561022457600080fd5b5061023f600480360381019061023a919061445b565b612a4e565b60405161024c91906149ec565b60405180910390f35b34801561026157600080fd5b5061027c60048036038101906102779190614295565b612b76565b60405161028991906144b3565b60405180910390f35b34801561029e57600080fd5b506102b960048036038101906102b49190614295565b612ce0565b6040516102c691906144b3565b60405180910390f35b6102d881613062565b610317576040517f08c379a000000000000000000000000000000000000000000000000000000000815260040161030e90614a8a565b60405180910390fd5b61032133826130b3565b610360576040517f08c379a000000000000000000000000000000000000000000000000000000000815260040161035790614af6565b60405180910390fd5b6000600160009054906101000a900473ffffffffffffffffffffffffffffffffffffffff1673ffffffffffffffffffffffffffffffffffffffff1663b88c9148600260009054906101000a900473ffffffffffffffffffffffffffffffffffffffff166040518263ffffffff1660e01b81526004016103df91906149ec565b602060405180830381865afa1580156103fc573d6000803e3d6000fd5b505050506040513d601f19601f820116820180604052508101906104209190614b5e565b6fffffffffffffffffffffffffffffffff1690508034101561046e576040517f025dbdd400000000000000000000000000000000000000000000000000000000815260040160405180910390fd5b6000600160009054906101000a900473ffffffffffffffffffffffffffffffffffffffff1673ffffffffffffffffffffffffffffffffffffffff166393cbf21783600260009054906101000a900473ffffffffffffffffffffffffffffffffffffffff168760016040518563ffffffff1660e01b81526004016104f393929190614bb5565b60206040518083038185885af1158015610511573d6000803e3d6000fd5b50505050506040513d601f19601f820116820180604052508101906105369190614c01565b905033600360008367ffffffffffffffff1667ffffffffffffffff16815260200190815260200160002060006101000a81548173ffffffffffffffffffffffffffffffffffffffff021916908373ffffffffffffffffffffffffffffffffffffffff1602179055507f7da1b5ae936dfd098f9225db84f0386b7c229bc907fc79f4a89a335d459a33fc816040516105cd9190614c3d565b60405180910390a150505050565b6000600760003373ffffffffffffffffffffffffffffffffffffffff1673ffffffffffffffffffffffffffffffffffffffff1681526020019081526020016000206040518060a001604052908160008201805461063790614c87565b80601f016020809104026020016040519081016040528092919081815260200182805461066390614c87565b80156106b05780601f10610685576101008083540402835291602001916106b0565b820191906000526020600020905b81548152906001019060200180831161069357829003601f168201915b505050505081526020016001820154815260200160028201600380602002604051908101604052809291906000905b828210156107825783820180546106f590614c87565b80601f016020809104026020016040519081016040528092919081815260200182805461072190614c87565b801561076e5780601f106107435761010080835404028352916020019161076e565b820191906000526020600020905b81548152906001019060200180831161075157829003601f168201915b5050505050815260200190600101906106df565b505050508152602001600582016003806020026040519081016040528092919082600380156107c6576020028201915b8154815260200190600101908083116107b2575b505050505081526020016008820154815250509050600060066000836020015181526020019081526020016000206040518060c001604052908160008201805461080f90614c87565b80601f016020809104026020016040519081016040528092919081815260200182805461083b90614c87565b80156108885780601f1061085d57610100808354040283529160200191610888565b820191906000526020600020905b81548152906001019060200180831161086b57829003601f168201915b50505050508152602001600182015481526020016002820180546108ab90614c87565b80601f01602080910402602001604051908101604052809291908181526020018280546108d790614c87565b80156109245780601f106108f957610100808354040283529160200191610924565b820191906000526020600020905b81548152906001019060200180831161090757829003601f168201915b505050505081526020016003820160038060200260405190810160405280929190826003801561099f576020028201915b8160009054906101000a900473ffffffffffffffffffffffffffffffffffffffff1673ffffffffffffffffffffffffffffffffffffffff1681526020019060010190808311610955575b505050505081526020016006820160009054906101000a900473ffffffffffffffffffffffffffffffffffffffff1673ffffffffffffffffffffffffffffffffffffffff1673ffffffffffffffffffffffffffffffffffffffff1681526020016007820154815250509050610a4d6040518060400160405280601781526020017f4a7564676543617264202d2047616d652049443a2025730000000000000000008152508360200151613102565b610a906040518060400160405280601b81526020017f4a7564676543617264202d2047616d65205374617475733a20257300000000008152508260200151613102565b610ad36040518060400160405280601a81526020017f4a7564676543617264202d2047616d6520526f756e643a2025730000000000008152508260a00151613102565b610b126040518060400160405280601f81526020017f4a7564676543617264202d2046756e6374696f6e2043616c6c65723a202573008152503361319e565b610b8b6040518060400160405280601b81526020017f4a7564676543617264202d20506c61796572205475726e3a2025730000000000815250826060015160038460a001518560200151610b669190614ce7565b610b709190614d4a565b60038110610b8157610b80614d7b565b5b602002015161319e565b6003816020015114610bd2576040517f08c379a0000000000000000000000000000000000000000000000000000000008152600401610bc990614df6565b60405180910390fd5b3373ffffffffffffffffffffffffffffffffffffffff16816060015160038360a001518460200151610c049190614ce7565b610c0e9190614d4a565b60038110610c1f57610c1e614d7b565b5b602002015173ffffffffffffffffffffffffffffffffffffffff1614610c7a576040517f08c379a0000000000000000000000000000000000000000000000000000000008152600401610c7190614e62565b60405180910390fd5b60028310610cbd576040517f08c379a0000000000000000000000000000000000000000000000000000000008152600401610cb490614ece565b60405180910390fd5b6000816060015160038360a001516001878660200151610cdd9190614ce7565b610ce79190614ce7565b610cf19190614ce7565b610cfb9190614d4a565b60038110610d0c57610d0b614d7b565b5b602002015190506000600760008373ffffffffffffffffffffffffffffffffffffffff1673ffffffffffffffffffffffffffffffffffffffff1681526020019081526020016000206002016001600760008573ffffffffffffffffffffffffffffffffffffffff1673ffffffffffffffffffffffffffffffffffffffff1681526020019081526020016000206005018560a0015160038110610db157610db0614d7b565b5b0154610dbd9190614eee565b60038110610dce57610dcd614d7b565b5b018054610dda90614c87565b80601f0160208091040260200160405190810160405280929190818152602001828054610e0690614c87565b8015610e535780601f10610e2857610100808354040283529160200191610e53565b820191906000526020600020905b815481529060010190602001808311610e3657829003601f168201915b505050505090506001600760008473ffffffffffffffffffffffffffffffffffffffff1673ffffffffffffffffffffffffffffffffffffffff16815260200190815260200160002060080154610ea99190614ce7565b600760008473ffffffffffffffffffffffffffffffffffffffff1673ffffffffffffffffffffffffffffffffffffffff16815260200190815260200160002060080181905550610f2e6040518060400160405280601281526020017f57696e6e657220416464726573733a20257300000000000000000000000000008152508361319e565b610fc66040518060400160405280601481526020017f4465616c74204361726420496e6465783a202573000000000000000000000000815250600760008573ffffffffffffffffffffffffffffffffffffffff1673ffffffffffffffffffffffffffffffffffffffff1681526020019081526020016000206005018560a0015160038110610fbf57610fbe614d7b565b5b0154613102565b6110056040518060400160405280600f81526020017f4a756467656420436172643a20257300000000000000000000000000000000008152508261323a565b7fd4c3a31b65487fd034ce500d87be52b975c421145597715da84072fc5530c933816040516110349190614f5b565b60405180910390a160028360a0015110156110b357600160066000866020015181526020019081526020016000206001018190555060016006600086602001518152602001908152602001600020600701546110909190614ce7565b60066000866020015181526020019081526020016000206007018190555061183c565b60046006600086602001518152602001908152602001600020600101819055506000600490506000805b600381101561149957611166604051806060016040528060238152602001615d586023913982600760008a60600151866003811061111e5761111d614d7b565b5b602002015173ffffffffffffffffffffffffffffffffffffffff1673ffffffffffffffffffffffffffffffffffffffff168152602001908152602001600020600801546132d6565b81600760008860600151846003811061118257611181614d7b565b5b602002015173ffffffffffffffffffffffffffffffffffffffff1673ffffffffffffffffffffffffffffffffffffffff1681526020019081526020016000206008015411156112335780925060076000876060015183600381106111e9576111e8614d7b565b5b602002015173ffffffffffffffffffffffffffffffffffffffff1673ffffffffffffffffffffffffffffffffffffffff16815260200190815260200160002060080154915061129d565b81600760008860600151846003811061124f5761124e614d7b565b5b602002015173ffffffffffffffffffffffffffffffffffffffff1673ffffffffffffffffffffffffffffffffffffffff168152602001908152602001600020600801540361129c57600492505b5b600060076000886060015184600381106112ba576112b9614d7b565b5b602002015173ffffffffffffffffffffffffffffffffffffffff1673ffffffffffffffffffffffffffffffffffffffff168152602001908152602001600020600101819055506000600760008860600151846003811061131d5761131c614d7b565b5b602002015173ffffffffffffffffffffffffffffffffffffffff1673ffffffffffffffffffffffffffffffffffffffff1681526020019081526020016000206008018190555060005b60038110156114855760405180602001604052806000815250600760008960600151856003811061139a57611399614d7b565b5b602002015173ffffffffffffffffffffffffffffffffffffffff1673ffffffffffffffffffffffffffffffffffffffff16815260200190815260200160002060020182600381106113ee576113ed614d7b565b5b0190816113fb9190615129565b506000600760008960600151856003811061141957611418614d7b565b5b602002015173ffffffffffffffffffffffffffffffffffffffff1673ffffffffffffffffffffffffffffffffffffffff168152602001908152602001600020600501826003811061146d5761146c614d7b565b5b0181905550808061147d906151fb565b915050611366565b508080611491906151fb565b9150506110dd565b50604051806020016040528060008152506007600087606001516000600381106114c6576114c5614d7b565b5b602002015173ffffffffffffffffffffffffffffffffffffffff1673ffffffffffffffffffffffffffffffffffffffff16815260200190815260200160002060020160006003811061151b5761151a614d7b565b5b0190816115289190615129565b50600482036115bd5761156f6040518060400160405280600981526020017f47616d6520447261770000000000000000000000000000000000000000000000815250613375565b600073ffffffffffffffffffffffffffffffffffffffff1686602001517f3d5fcd8fa3235aeb3897f25c8ea49989174981afcb01b9d03189d1056a16775b60405160405180910390a3611839565b600660008760200151815260200190815260200160002060030182600381106115e9576115e8614d7b565b5b0160009054906101000a900473ffffffffffffffffffffffffffffffffffffffff16600660008860200151815260200190815260200160002060060160006101000a81548173ffffffffffffffffffffffffffffffffffffffff021916908373ffffffffffffffffffffffffffffffffffffffff1602179055506116dc6040518060400160405280600f81526020017f47616d652057696e6e65723a2025730000000000000000000000000000000000815250600660008960200151815260200190815260200160002060060160009054906101000a900473ffffffffffffffffffffffffffffffffffffffff1661319e565b6006600087602001518152602001908152602001600020600301826003811061170857611707614d7b565b5b0160009054906101000a900473ffffffffffffffffffffffffffffffffffffffff1673ffffffffffffffffffffffffffffffffffffffff1686602001517f3d5fcd8fa3235aeb3897f25c8ea49989174981afcb01b9d03189d1056a16775b60405160405180910390a3600460009054906101000a900473ffffffffffffffffffffffffffffffffffffffff1673ffffffffffffffffffffffffffffffffffffffff1663e43252d7600660008960200151815260200190815260200160002060060160009054906101000a900473ffffffffffffffffffffffffffffffffffffffff166040518263ffffffff1660e01b815260040161180691906149ec565b600060405180830381600087803b15801561182057600080fd5b505af1158015611834573d6000803e3d6000fd5b505050505b50505b5050505050565b61184c83613062565b61188b576040517f08c379a000000000000000000000000000000000000000000000000000000000815260040161188290614a8a565b60405180910390fd5b61189533846130b3565b6118d4576040517f08c379a00000000000000000000000000000000000000000000000000000000081526004016118cb90614af6565b60405180910390fd5b600073ffffffffffffffffffffffffffffffffffffffff166006600085815260200190815260200160002060030160026003811061191557611914614d7b565b5b0160009054906101000a900473ffffffffffffffffffffffffffffffffffffffff1673ffffffffffffffffffffffffffffffffffffffff160361198d576040517f08c379a0000000000000000000000000000000000000000000000000000000008152600401611984906152b5565b60405180910390fd5b60006006600085815260200190815260200160002060010154146119e6576040517f08c379a00000000000000000000000000000000000000000000000000000000081526004016119dd90615347565b60405180910390fd5b6119f183838361340e565b60016006600085815260200190815260200160002060010181905550827f50ad08f58a27f2851d7e3a1b3a6a46b290f2ce677e99642d30ff639721e7779060405160405180910390a2505050565b6000611a4a33613a80565b611a89576040517f08c379a0000000000000000000000000000000000000000000000000000000008152600401611a80906153b3565b60405180910390fd5b611a9233613adb565b15611ad2576040517f08c379a0000000000000000000000000000000000000000000000000000000008152600401611ac99061541f565b60405180910390fd5b6000825103611b16576040517f08c379a0000000000000000000000000000000000000000000000000000000008152600401611b0d9061548b565b60405180910390fd5b6000611b20613b2a565b905080600760003373ffffffffffffffffffffffffffffffffffffffff1673ffffffffffffffffffffffffffffffffffffffff1681526020019081526020016000206001018190555082600660008381526020019081526020016000206000019081611b8c9190615129565b503360066000838152602001908152602001600020600301600060038110611bb757611bb6614d7b565b5b0160006101000a81548173ffffffffffffffffffffffffffffffffffffffff021916908373ffffffffffffffffffffffffffffffffffffffff160217905550807fbd19c47e9925eb6f7be8bb1c13a841e0240aaeaf17f217e90022e9c8eb66877f60405160405180910390a280915050919050565b611c346140d3565b611c3d82613b49565b9050919050565b6000600760003373ffffffffffffffffffffffffffffffffffffffff1673ffffffffffffffffffffffffffffffffffffffff1681526020019081526020016000206040518060a0016040529081600082018054611ca090614c87565b80601f0160208091040260200160405190810160405280929190818152602001828054611ccc90614c87565b8015611d195780601f10611cee57610100808354040283529160200191611d19565b820191906000526020600020905b815481529060010190602001808311611cfc57829003601f168201915b505050505081526020016001820154815260200160028201600380602002604051908101604052809291906000905b82821015611deb578382018054611d5e90614c87565b80601f0160208091040260200160405190810160405280929190818152602001828054611d8a90614c87565b8015611dd75780601f10611dac57610100808354040283529160200191611dd7565b820191906000526020600020905b815481529060010190602001808311611dba57829003601f168201915b505050505081526020019060010190611d48565b50505050815260200160058201600380602002604051908101604052809291908260038015611e2f576020028201915b815481526020019060010190808311611e1b575b505050505081526020016008820154815250509050600060066000836020015181526020019081526020016000206040518060c0016040529081600082018054611e7890614c87565b80601f0160208091040260200160405190810160405280929190818152602001828054611ea490614c87565b8015611ef15780601f10611ec657610100808354040283529160200191611ef1565b820191906000526020600020905b815481529060010190602001808311611ed457829003601f168201915b5050505050815260200160018201548152602001600282018054611f1490614c87565b80601f0160208091040260200160405190810160405280929190818152602001828054611f4090614c87565b8015611f8d5780601f10611f6257610100808354040283529160200191611f8d565b820191906000526020600020905b815481529060010190602001808311611f7057829003601f168201915b5050505050815260200160038201600380602002604051908101604052809291908260038015612008576020028201915b8160009054906101000a900473ffffffffffffffffffffffffffffffffffffffff1673ffffffffffffffffffffffffffffffffffffffff1681526020019060010190808311611fbe575b505050505081526020016006820160009054906101000a900473ffffffffffffffffffffffffffffffffffffffff1673ffffffffffffffffffffffffffffffffffffffff1673ffffffffffffffffffffffffffffffffffffffff16815260200160078201548152505090506120b66040518060400160405280601681526020017f506c617943617264202d2047616d652049443a202573000000000000000000008152508360200151613102565b6120f96040518060400160405280601a81526020017f506c617943617264202d2047616d65205374617475733a2025730000000000008152508260200151613102565b61213c6040518060400160405280601981526020017f506c617943617264202d2047616d6520526f756e643a202573000000000000008152508260a00151613102565b61217b6040518060400160405280601e81526020017f506c617943617264202d2046756e6374696f6e2043616c6c65723a20257300008152503361319e565b6121f46040518060400160405280601a81526020017f506c617943617264202d20506c61796572205475726e3a202573000000000000815250826060015160038460a0015185602001516121cf9190614ce7565b6121d99190614d4a565b600381106121ea576121e9614d7b565b5b602002015161319e565b60018160200151148061220b575060028160200151145b61224a576040517f08c379a000000000000000000000000000000000000000000000000000000000815260040161224190614df6565b60405180910390fd5b3373ffffffffffffffffffffffffffffffffffffffff16816060015160038360a00151846020015161227c9190614ce7565b6122869190614d4a565b6003811061229757612296614d7b565b5b602002015173ffffffffffffffffffffffffffffffffffffffff16146122f2576040517f08c379a00000000000000000000000000000000000000000000000000000000081526004016122e9906154f7565b60405180910390fd5b60008311806123015750600483105b612340576040517f08c379a000000000000000000000000000000000000000000000000000000000815260040161233790615563565b60405180910390fd5b61237e604051806060016040528060248152602001615cc560249139836060015160006003811061237457612373614d7b565b5b6020020151613102565b6123bc604051806060016040528060248152602001615d7b6024913983606001516001600381106123b2576123b1614d7b565b5b6020020151613102565b60018160a001510361242b578282606001516000600381106123e1576123e0614d7b565b5b602002015103612426576040517f08c379a000000000000000000000000000000000000000000000000000000000815260040161241d906155cf565b60405180910390fd5b6124c0565b60028160a00151036124bf578282606001516000600381106124505761244f614d7b565b5b60200201511415801561247f575082826060015160016003811061247757612476614d7b565b5b602002015114155b6124be576040517f08c379a00000000000000000000000000000000000000000000000000000000081526004016124b59061563b565b60405180910390fd5b5b5b82600760003373ffffffffffffffffffffffffffffffffffffffff1673ffffffffffffffffffffffffffffffffffffffff1681526020019081526020016000206005018260a001516003811061251957612518614d7b565b5b018190555060016006600084602001518152602001908152602001600020600101546125459190614ce7565b6006600084602001518152602001908152602001600020600101819055506125c96040518060400160405280600f81526020017f506c6179656420436172643a202573000000000000000000000000000000000081525083604001516001866125ae9190614eee565b600381106125bf576125be614d7b565b5b602002015161323a565b7f06a3785fef37e7623aaf4c52bf79dc399c8ad1f02fdb776362515f819e06ddad82604001516001856125fc9190614eee565b6003811061260d5761260c614d7b565b5b602002015160405161261f9190614f5b565b60405180910390a1505050565b61263581613062565b612674576040517f08c379a000000000000000000000000000000000000000000000000000000000815260040161266b90614a8a565b60405180910390fd5b61267e33826130b3565b6126bd576040517f08c379a00000000000000000000000000000000000000000000000000000000081526004016126b490614af6565b60405180910390fd5b3373ffffffffffffffffffffffffffffffffffffffff16600360008667ffffffffffffffff1667ffffffffffffffff16815260200190815260200160002060009054906101000a900473ffffffffffffffffffffffffffffffffffffffff1673ffffffffffffffffffffffffffffffffffffffff1614612769576040517f7d1c29f300000000000000000000000000000000000000000000000000000000815260040160405180910390fd5b600360008567ffffffffffffffff1667ffffffffffffffff16815260200190815260200160002060006101000a81549073ffffffffffffffffffffffffffffffffffffffff02191690556000600160009054906101000a900473ffffffffffffffffffffffffffffffffffffffff1673ffffffffffffffffffffffffffffffffffffffff16639371df51600260009054906101000a900473ffffffffffffffffffffffffffffffffffffffff168787876040518563ffffffff1660e01b8152600401612838949392919061565b565b6020604051808303816000875af1158015612857573d6000803e3d6000fd5b505050506040513d601f19601f8201168201806040525081019061287b91906156b5565b90507f99b0b842285696026568eac17ecb97715201c75b26566d93babfdf0a7ab1349f60008054906101000a900473ffffffffffffffffffffffffffffffffffffffff1673ffffffffffffffffffffffffffffffffffffffff1663304adedf6040518163ffffffff1660e01b8152600401600060405180830381865afa158015612909573d6000803e3d6000fd5b505050506040513d6000823e3d601f19601f820116820180604052508101906129329190615838565b518260001c6129419190614d4a565b60405161294e91906144b3565b60405180910390a17f2eef88cd632bd1bb9f0ba305cd6073682753db854a44fbbb152b3803cc5cd77a60008054906101000a900473ffffffffffffffffffffffffffffffffffffffff1673ffffffffffffffffffffffffffffffffffffffff166363ff39d36040518163ffffffff1660e01b8152600401600060405180830381865afa1580156129e2573d6000803e3d6000fd5b505050506040513d6000823e3d601f19601f82011682018060405250810190612a0b9190615838565b518260001c612a1a9190614d4a565b604051612a2791906144b3565b60405180910390a15050505050565b612a3e61410e565b612a4782613d54565b9050919050565b600080825111612a93576040517f08c379a0000000000000000000000000000000000000000000000000000000008152600401612a8a906158f3565b60405180910390fd5b81600760003373ffffffffffffffffffffffffffffffffffffffff1673ffffffffffffffffffffffffffffffffffffffff1681526020019081526020016000206000019081612ae29190615129565b506000600760003373ffffffffffffffffffffffffffffffffffffffff1673ffffffffffffffffffffffffffffffffffffffff168152602001908152602001600020600101819055503373ffffffffffffffffffffffffffffffffffffffff167f8cd3331e32cec677d80b82cf0f71496605e7ed6ff864a3ccedc7d5d11d838c8360405160405180910390a2339050919050565b6000612b8182613062565b612bc0576040517f08c379a0000000000000000000000000000000000000000000000000000000008152600401612bb790614a8a565b60405180910390fd5b612bca33836130b3565b612c09576040517f08c379a0000000000000000000000000000000000000000000000000000000008152600401612c0090614af6565b60405180910390fd5b600160009054906101000a900473ffffffffffffffffffffffffffffffffffffffff1673ffffffffffffffffffffffffffffffffffffffff1663b88c9148600260009054906101000a900473ffffffffffffffffffffffffffffffffffffffff166040518263ffffffff1660e01b8152600401612c8691906149ec565b602060405180830381865afa158015612ca3573d6000803e3d6000fd5b505050506040513d601f19601f82011682018060405250810190612cc79190614b5e565b6fffffffffffffffffffffffffffffffff169050919050565b6000612ceb33613adb565b15612d2b576040517f08c379a0000000000000000000000000000000000000000000000000000000008152600401612d229061541f565b60405180910390fd5b612d3482613062565b612d73576040517f08c379a0000000000000000000000000000000000000000000000000000000008152600401612d6a9061595f565b60405180910390fd5b612d7c82613f8a565b15612dbc576040517f08c379a0000000000000000000000000000000000000000000000000000000008152600401612db3906159cb565b60405180910390fd5b600073ffffffffffffffffffffffffffffffffffffffff1660066000848152602001908152602001600020600301600160038110612dfd57612dfc614d7b565b5b0160009054906101000a900473ffffffffffffffffffffffffffffffffffffffff1673ffffffffffffffffffffffffffffffffffffffff1603612ea8573360066000848152602001908152602001600020600301600160038110612e6457612e63614d7b565b5b0160006101000a81548173ffffffffffffffffffffffffffffffffffffffff021916908373ffffffffffffffffffffffffffffffffffffffff160217905550612fd0565b600073ffffffffffffffffffffffffffffffffffffffff1660066000848152602001908152602001600020600301600260038110612ee957612ee8614d7b565b5b0160009054906101000a900473ffffffffffffffffffffffffffffffffffffffff1673ffffffffffffffffffffffffffffffffffffffff1603612f94573360066000848152602001908152602001600020600301600260038110612f5057612f4f614d7b565b5b0160006101000a81548173ffffffffffffffffffffffffffffffffffffffff021916908373ffffffffffffffffffffffffffffffffffffffff160217905550612fcf565b6040517f08c379a0000000000000000000000000000000000000000000000000000000008152600401612fc690615a37565b60405180910390fd5b5b81600760003373ffffffffffffffffffffffffffffffffffffffff1673ffffffffffffffffffffffffffffffffffffffff168152602001908152602001600020600101819055503373ffffffffffffffffffffffffffffffffffffffff167fc68496747c2489116dea437701c050954392ff81f76e96cf530bdd493b2eefa160405160405180910390a2819050919050565b60008082036130a6576040517f08c379a000000000000000000000000000000000000000000000000000000000815260040161309d90615aa3565b60405180910390fd5b6005548211159050919050565b600081600760008573ffffffffffffffffffffffffffffffffffffffff1673ffffffffffffffffffffffffffffffffffffffff1681526020019081526020016000206001015414905092915050565b61319a8282604051602401613118929190615ac3565b6040516020818303038152906040527fb60e72cc000000000000000000000000000000000000000000000000000000007bffffffffffffffffffffffffffffffffffffffffffffffffffffffff19166020820180517bffffffffffffffffffffffffffffffffffffffffffffffffffffffff8381831617835250505050613fb9565b5050565b61323682826040516024016131b4929190615af3565b6040516020818303038152906040527f319af333000000000000000000000000000000000000000000000000000000007bffffffffffffffffffffffffffffffffffffffffffffffffffffffff19166020820180517bffffffffffffffffffffffffffffffffffffffffffffffffffffffff8381831617835250505050613fb9565b5050565b6132d28282604051602401613250929190615b23565b6040516020818303038152906040527f4b5c4277000000000000000000000000000000000000000000000000000000007bffffffffffffffffffffffffffffffffffffffffffffffffffffffff19166020820180517bffffffffffffffffffffffffffffffffffffffffffffffffffffffff8381831617835250505050613fb9565b5050565b6133708383836040516024016132ee93929190615b5a565b6040516020818303038152906040527fca47c4eb000000000000000000000000000000000000000000000000000000007bffffffffffffffffffffffffffffffffffffffffffffffffffffffff19166020820180517bffffffffffffffffffffffffffffffffffffffffffffffffffffffff8381831617835250505050613fb9565b505050565b61340b816040516024016133899190614f5b565b6040516020818303038152906040527f41304fac000000000000000000000000000000000000000000000000000000007bffffffffffffffffffffffffffffffffffffffffffffffffffffffff19166020820180517bffffffffffffffffffffffffffffffffffffffffffffffffffffffff8381831617835250505050613fb9565b50565b6000600660008581526020019081526020016000205060039050600082826134369190615b98565b905060008060009054906101000a900473ffffffffffffffffffffffffffffffffffffffff1673ffffffffffffffffffffffffffffffffffffffff1663304adedf6040518163ffffffff1660e01b8152600401600060405180830381865afa1580156134a6573d6000803e3d6000fd5b505050506040513d6000823e3d601f19601f820116820180604052508101906134cf9190615838565b905060008060009054906101000a900473ffffffffffffffffffffffffffffffffffffffff1673ffffffffffffffffffffffffffffffffffffffff166363ff39d36040518163ffffffff1660e01b8152600401600060405180830381865afa15801561353f573d6000803e3d6000fd5b505050506040513d6000823e3d601f19601f820116820180604052508101906135689190615838565b905082825110156135ae576040517f08c379a00000000000000000000000000000000000000000000000000000000081526004016135a590615c4c565b60405180910390fd5b6135ee6040518060400160405280601781526020017f4e756d206f6620416e737765722043617264733a2025730000000000000000008152508351613102565b61362e6040518060400160405280601981526020017f4e756d206f66205175657374696f6e2043617264733a202573000000000000008152508251613102565b61366d6040518060400160405280601681526020017f4e756d206f6620546f74616c2043617264733a2025730000000000000000000081525084613102565b6136aa604051806060016040528060238152602001615d10602391398360008151811061369d5761369c614d7b565b5b602002602001015161323a565b6136e7604051806060016040528060258152602001615d9f60259139826000815181106136da576136d9614d7b565b5b602002602001015161323a565b6136f18683613fd3565b6136fb8682613fd3565b613738604051806060016040528060258152602001615d33602591398360008151811061372b5761372a614d7b565b5b602002602001015161323a565b613775604051806060016040528060278152602001615ce9602791398260008151811061376857613767614d7b565b5b602002602001015161323a565b8060066000898152602001908152602001600020600701548151811061379e5761379d614d7b565b5b60200260200101516006600089815260200190815260200160002060020190816137c89190615129565b5060005b84811015613a495760005b6003811015613a355783816003846137ef9190615b98565b6137f99190614ce7565b8151811061380a57613809614d7b565b5b602002602001015160076000600660008d8152602001908152602001600020600301856003811061383e5761383d614d7b565b5b0160009054906101000a900473ffffffffffffffffffffffffffffffffffffffff1673ffffffffffffffffffffffffffffffffffffffff1673ffffffffffffffffffffffffffffffffffffffff16815260200190815260200160002060020182600381106138af576138ae614d7b565b5b0190816138bc9190615129565b50613a226040518060400160405280600e81526020017f4465616c7420436172643a20257300000000000000000000000000000000000081525060076000600660008e8152602001908152602001600020600301866003811061392257613921614d7b565b5b0160009054906101000a900473ffffffffffffffffffffffffffffffffffffffff1673ffffffffffffffffffffffffffffffffffffffff1673ffffffffffffffffffffffffffffffffffffffff168152602001908152602001600020600201836003811061399357613992614d7b565b5b01805461399f90614c87565b80601f01602080910402602001604051908101604052809291908181526020018280546139cb90614c87565b8015613a185780601f106139ed57610100808354040283529160200191613a18565b820191906000526020600020905b8154815290600101906020018083116139fb57829003601f168201915b505050505061323a565b8080613a2d906151fb565b9150506137d7565b508080613a41906151fb565b9150506137cc565b50867f3b54117fc881ff244eef1480d834bc0a1cc974076b145521c0c86e0c7851f7b860405160405180910390a250505050505050565b600080600760008473ffffffffffffffffffffffffffffffffffffffff1673ffffffffffffffffffffffffffffffffffffffff1681526020019081526020016000206000018054613ad090614c87565b905014159050919050565b600080600760008473ffffffffffffffffffffffffffffffffffffffff1673ffffffffffffffffffffffffffffffffffffffff1681526020019081526020016000206001015414159050919050565b60006001600554613b3b9190614ce7565b600581905550600554905090565b613b516140d3565b600760008373ffffffffffffffffffffffffffffffffffffffff1673ffffffffffffffffffffffffffffffffffffffff1681526020019081526020016000206040518060a0016040529081600082018054613bab90614c87565b80601f0160208091040260200160405190810160405280929190818152602001828054613bd790614c87565b8015613c245780601f10613bf957610100808354040283529160200191613c24565b820191906000526020600020905b815481529060010190602001808311613c0757829003601f168201915b505050505081526020016001820154815260200160028201600380602002604051908101604052809291906000905b82821015613cf6578382018054613c6990614c87565b80601f0160208091040260200160405190810160405280929190818152602001828054613c9590614c87565b8015613ce25780601f10613cb757610100808354040283529160200191613ce2565b820191906000526020600020905b815481529060010190602001808311613cc557829003601f168201915b505050505081526020019060010190613c53565b50505050815260200160058201600380602002604051908101604052809291908260038015613d3a576020028201915b815481526020019060010190808311613d26575b505050505081526020016008820154815250509050919050565b613d5c61410e565b600660008381526020019081526020016000206040518060c0016040529081600082018054613d8a90614c87565b80601f0160208091040260200160405190810160405280929190818152602001828054613db690614c87565b8015613e035780601f10613dd857610100808354040283529160200191613e03565b820191906000526020600020905b815481529060010190602001808311613de657829003601f168201915b5050505050815260200160018201548152602001600282018054613e2690614c87565b80601f0160208091040260200160405190810160405280929190818152602001828054613e5290614c87565b8015613e9f5780601f10613e7457610100808354040283529160200191613e9f565b820191906000526020600020905b815481529060010190602001808311613e8257829003601f168201915b5050505050815260200160038201600380602002604051908101604052809291908260038015613f1a576020028201915b8160009054906101000a900473ffffffffffffffffffffffffffffffffffffffff1673ffffffffffffffffffffffffffffffffffffffff1681526020019060010190808311613ed0575b505050505081526020016006820160009054906101000a900473ffffffffffffffffffffffffffffffffffffffff1673ffffffffffffffffffffffffffffffffffffffff1673ffffffffffffffffffffffffffffffffffffffff1681526020016007820154815250509050919050565b600080613f9683613d54565b90506000816020015103613fae576000915050613fb4565b60019150505b919050565b613fd081613fc86140a76140c8565b63ffffffff16565b50565b600060018251613fe39190614eee565b90505b60008111156140a2576000600182613ffe9190614ce7565b828561400a9190614ce7565b6140149190614d4a565b9050600083838151811061402b5761402a614d7b565b5b6020026020010151905083828151811061404857614047614d7b565b5b602002602001015184848151811061406357614062614d7b565b5b60200260200101819052508084838151811061408257614081614d7b565b5b60200260200101819052505050808061409a90615c6c565b915050613fe6565b505050565b60006a636f6e736f6c652e6c6f679050600080835160208501845afa505050565b614160819050919050565b6040518060a0016040528060608152602001600081526020016140f461416a565b8152602001614101614191565b8152602001600081525090565b6040518060c001604052806060815260200160008152602001606081526020016141366141b3565b8152602001600073ffffffffffffffffffffffffffffffffffffffff168152602001600081525090565b614168615c95565b565b60405180606001604052806003905b60608152602001906001900390816141795790505090565b6040518060600160405280600390602082028036833780820191505090505090565b6040518060600160405280600390602082028036833780820191505090505090565b6000604051905090565b600080fd5b600080fd5b6000819050919050565b6141fc816141e9565b811461420757600080fd5b50565b600081359050614219816141f3565b92915050565b6000819050919050565b6142328161421f565b811461423d57600080fd5b50565b60008135905061424f81614229565b92915050565b6000806040838503121561426c5761426b6141df565b5b600061427a8582860161420a565b925050602061428b85828601614240565b9150509250929050565b6000602082840312156142ab576142aa6141df565b5b60006142b984828501614240565b91505092915050565b6000806000606084860312156142db576142da6141df565b5b60006142e986828701614240565b93505060206142fa86828701614240565b925050604061430b86828701614240565b9150509250925092565b600080fd5b600080fd5b6000601f19601f8301169050919050565b7f4e487b7100000000000000000000000000000000000000000000000000000000600052604160045260246000fd5b6143688261431f565b810181811067ffffffffffffffff8211171561438757614386614330565b5b80604052505050565b600061439a6141d5565b90506143a6828261435f565b919050565b600067ffffffffffffffff8211156143c6576143c5614330565b5b6143cf8261431f565b9050602081019050919050565b82818337600083830152505050565b60006143fe6143f9846143ab565b614390565b90508281526020810184848401111561441a5761441961431a565b5b6144258482856143dc565b509392505050565b600082601f83011261444257614441614315565b5b81356144528482602086016143eb565b91505092915050565b600060208284031215614471576144706141df565b5b600082013567ffffffffffffffff81111561448f5761448e6141e4565b5b61449b8482850161442d565b91505092915050565b6144ad8161421f565b82525050565b60006020820190506144c860008301846144a4565b92915050565b600073ffffffffffffffffffffffffffffffffffffffff82169050919050565b60006144f9826144ce565b9050919050565b614509816144ee565b811461451457600080fd5b50565b60008135905061452681614500565b92915050565b600060208284031215614542576145416141df565b5b600061455084828501614517565b91505092915050565b600081519050919050565b600082825260208201905092915050565b60005b83811015614593578082015181840152602081019050614578565b60008484015250505050565b60006145aa82614559565b6145b48185614564565b93506145c4818560208601614575565b6145cd8161431f565b840191505092915050565b6145e18161421f565b82525050565b600060039050919050565b600081905092915050565b6000819050919050565b6000614613838361459f565b905092915050565b6000602082019050919050565b6000614633826145e7565b61463d81856145f2565b93508360208202850161464f856145fd565b8060005b8581101561468b578484038952815161466c8582614607565b94506146778361461b565b925060208a01995050600181019050614653565b50829750879550505050505092915050565b600060039050919050565b600081905092915050565b6000819050919050565b60006146c983836145d8565b60208301905092915050565b6000602082019050919050565b6146eb8161469d565b6146f581846146a8565b9250614700826146b3565b8060005b8381101561473157815161471887826146bd565b9650614723836146d5565b925050600181019050614704565b505050505050565b600060e0830160008301518482036000860152614756828261459f565b915050602083015161476b60208601826145d8565b50604083015184820360408601526147838282614628565b915050606083015161479860608601826146e2565b5060808301516147ab60c08601826145d8565b508091505092915050565b600060208201905081810360008301526147d08184614739565b905092915050565b600067ffffffffffffffff82169050919050565b6147f5816147d8565b811461480057600080fd5b50565b600081359050614812816147ec565b92915050565b60008060008060808587031215614832576148316141df565b5b600061484087828801614803565b94505060206148518782880161420a565b93505060406148628782880161420a565b925050606061487387828801614240565b91505092959194509250565b600060039050919050565b600081905092915050565b6000819050919050565b6148a8816144ee565b82525050565b60006148ba838361489f565b60208301905092915050565b6000602082019050919050565b6148dc8161487f565b6148e6818461488a565b92506148f182614895565b8060005b8381101561492257815161490987826148ae565b9650614914836148c6565b9250506001810190506148f5565b505050505050565b6000610100830160008301518482036000860152614948828261459f565b915050602083015161495d60208601826145d8565b5060408301518482036040860152614975828261459f565b915050606083015161498a60608601826148d3565b50608083015161499d60c086018261489f565b5060a08301516149b060e08601826145d8565b508091505092915050565b600060208201905081810360008301526149d5818461492a565b905092915050565b6149e6816144ee565b82525050565b6000602082019050614a0160008301846149dd565b92915050565b600082825260208201905092915050565b7f5468657265206973206e6f2067616d652061737369676e656420746f2074686960008201527f7320696400000000000000000000000000000000000000000000000000000000602082015250565b6000614a74602483614a07565b9150614a7f82614a18565b604082019050919050565b60006020820190508181036000830152614aa381614a67565b9050919050565b7f596f7520617265206e6f742070617274206f6620746869732067616d65000000600082015250565b6000614ae0601d83614a07565b9150614aeb82614aaa565b602082019050919050565b60006020820190508181036000830152614b0f81614ad3565b9050919050565b60006fffffffffffffffffffffffffffffffff82169050919050565b614b3b81614b16565b8114614b4657600080fd5b50565b600081519050614b5881614b32565b92915050565b600060208284031215614b7457614b736141df565b5b6000614b8284828501614b49565b91505092915050565b614b94816141e9565b82525050565b60008115159050919050565b614baf81614b9a565b82525050565b6000606082019050614bca60008301866149dd565b614bd76020830185614b8b565b614be46040830184614ba6565b949350505050565b600081519050614bfb816147ec565b92915050565b600060208284031215614c1757614c166141df565b5b6000614c2584828501614bec565b91505092915050565b614c37816147d8565b82525050565b6000602082019050614c526000830184614c2e565b92915050565b7f4e487b7100000000000000000000000000000000000000000000000000000000600052602260045260246000fd5b60006002820490506001821680614c9f57607f821691505b602082108103614cb257614cb1614c58565b5b50919050565b7f4e487b7100000000000000000000000000000000000000000000000000000000600052601160045260246000fd5b6000614cf28261421f565b9150614cfd8361421f565b9250828201905080821115614d1557614d14614cb8565b5b92915050565b7f4e487b7100000000000000000000000000000000000000000000000000000000600052601260045260246000fd5b6000614d558261421f565b9150614d608361421f565b925082614d7057614d6f614d1b565b5b828206905092915050565b7f4e487b7100000000000000000000000000000000000000000000000000000000600052603260045260246000fd5b7f496e76616c69642067616d652073746174757300000000000000000000000000600082015250565b6000614de0601383614a07565b9150614deb82614daa565b602082019050919050565b60006020820190508181036000830152614e0f81614dd3565b9050919050565b7f5468697320706c61796572206973206e6f7420746865206a7564676500000000600082015250565b6000614e4c601c83614a07565b9150614e5782614e16565b602082019050919050565b60006020820190508181036000830152614e7b81614e3f565b9050919050565b7f4361726420696e646578206d7573742062652030206f72203100000000000000600082015250565b6000614eb8601983614a07565b9150614ec382614e82565b602082019050919050565b60006020820190508181036000830152614ee781614eab565b9050919050565b6000614ef98261421f565b9150614f048361421f565b9250828203905081811115614f1c57614f1b614cb8565b5b92915050565b6000614f2d82614559565b614f378185614a07565b9350614f47818560208601614575565b614f508161431f565b840191505092915050565b60006020820190508181036000830152614f758184614f22565b905092915050565b60008190508160005260206000209050919050565b60006020601f8301049050919050565b600082821b905092915050565b600060088302614fdf7fffffffffffffffffffffffffffffffffffffffffffffffffffffffffffffffff82614fa2565b614fe98683614fa2565b95508019841693508086168417925050509392505050565b6000819050919050565b600061502661502161501c8461421f565b615001565b61421f565b9050919050565b6000819050919050565b6150408361500b565b61505461504c8261502d565b848454614faf565b825550505050565b600090565b61506961505c565b615074818484615037565b505050565b5b818110156150985761508d600082615061565b60018101905061507a565b5050565b601f8211156150dd576150ae81614f7d565b6150b784614f92565b810160208510156150c6578190505b6150da6150d285614f92565b830182615079565b50505b505050565b600082821c905092915050565b6000615100600019846008026150e2565b1980831691505092915050565b600061511983836150ef565b9150826002028217905092915050565b61513282614559565b67ffffffffffffffff81111561514b5761514a614330565b5b6151558254614c87565b61516082828561509c565b600060209050601f8311600181146151935760008415615181578287015190505b61518b858261510d565b8655506151f3565b601f1984166151a186614f7d565b60005b828110156151c9578489015182556001820191506020850194506020810190506151a4565b868310156151e657848901516151e2601f8916826150ef565b8355505b6001600288020188555050505b505050505050565b60006152068261421f565b91507fffffffffffffffffffffffffffffffffffffffffffffffffffffffffffffffff820361523857615237614cb8565b5b600182019050919050565b7f43616e6e6f7420737461727420612067616d652074686174206973206e6f742060008201527f66756c6c00000000000000000000000000000000000000000000000000000000602082015250565b600061529f602483614a07565b91506152aa82615243565b604082019050919050565b600060208201905081810360008301526152ce81615292565b9050919050565b7f47616d65206973206e6f7420696e2074686520636f727265637420737461747560008201527f7320746f20737461727400000000000000000000000000000000000000000000602082015250565b6000615331602a83614a07565b915061533c826152d5565b604082019050919050565b6000602082019050818103600083015261536081615324565b9050919050565b7f506c6179657220646f6573206e6f742065786973740000000000000000000000600082015250565b600061539d601583614a07565b91506153a882615367565b602082019050919050565b600060208201905081810360008301526153cc81615390565b9050919050565b7f506c6179657220616c726561647920696e20612067616d650000000000000000600082015250565b6000615409601883614a07565b9150615414826153d3565b602082019050919050565b60006020820190508181036000830152615438816153fc565b9050919050565b7f4e6f742076616c69642067616d65206e616d6500000000000000000000000000600082015250565b6000615475601383614a07565b91506154808261543f565b602082019050919050565b600060208201905081810360008301526154a481615468565b9050919050565b7f4e6f74207468697320706c6179657273207475726e0000000000000000000000600082015250565b60006154e1601583614a07565b91506154ec826154ab565b602082019050919050565b60006020820190508181036000830152615510816154d4565b9050919050565b7f4361726420696e646578206d75737420626520312c20322c206f722033000000600082015250565b600061554d601d83614a07565b915061555882615517565b602082019050919050565b6000602082019050818103600083015261557c81615540565b9050919050565b7f43617264207573656420696e20666972737420726f756e640000000000000000600082015250565b60006155b9601883614a07565b91506155c482615583565b602082019050919050565b600060208201905081810360008301526155e8816155ac565b9050919050565b7f43617264207573656420696e2070726576696f757320726f756e640000000000600082015250565b6000615625601b83614a07565b9150615630826155ef565b602082019050919050565b6000602082019050818103600083015261565481615618565b9050919050565b600060808201905061567060008301876149dd565b61567d6020830186614c2e565b61568a6040830185614b8b565b6156976060830184614b8b565b95945050505050565b6000815190506156af816141f3565b92915050565b6000602082840312156156cb576156ca6141df565b5b60006156d9848285016156a0565b91505092915050565b600067ffffffffffffffff8211156156fd576156fc614330565b5b602082029050602081019050919050565b600080fd5b6000615726615721846143ab565b614390565b9050828152602081018484840111156157425761574161431a565b5b61574d848285614575565b509392505050565b600082601f83011261576a57615769614315565b5b815161577a848260208601615713565b91505092915050565b6000615796615791846156e2565b614390565b905080838252602082019050602084028301858111156157b9576157b861570e565b5b835b8181101561580057805167ffffffffffffffff8111156157de576157dd614315565b5b8086016157eb8982615755565b855260208501945050506020810190506157bb565b5050509392505050565b600082601f83011261581f5761581e614315565b5b815161582f848260208601615783565b91505092915050565b60006020828403121561584e5761584d6141df565b5b600082015167ffffffffffffffff81111561586c5761586b6141e4565b5b6158788482850161580a565b91505092915050565b7f557365726e616d652063616e277420626520616e20656d70747920737472696e60008201527f6700000000000000000000000000000000000000000000000000000000000000602082015250565b60006158dd602183614a07565b91506158e882615881565b604082019050919050565b6000602082019050818103600083015261590c816158d0565b9050919050565b7f47616d6520646f6573206e6f7420657869737400000000000000000000000000600082015250565b6000615949601383614a07565b915061595482615913565b602082019050919050565b600060208201905081810360008301526159788161593c565b9050919050565b7f47616d6520616c72656164792061637469766500000000000000000000000000600082015250565b60006159b5601383614a07565b91506159c08261597f565b602082019050919050565b600060208201905081810360008301526159e4816159a8565b9050919050565b7f47616d6520616c72656164792066756c6c000000000000000000000000000000600082015250565b6000615a21601183614a07565b9150615a2c826159eb565b602082019050919050565b60006020820190508181036000830152615a5081615a14565b9050919050565b7f47616d65204944204e6f742056616c6964000000000000000000000000000000600082015250565b6000615a8d601183614a07565b9150615a9882615a57565b602082019050919050565b60006020820190508181036000830152615abc81615a80565b9050919050565b60006040820190508181036000830152615add8185614f22565b9050615aec60208301846144a4565b9392505050565b60006040820190508181036000830152615b0d8185614f22565b9050615b1c60208301846149dd565b9392505050565b60006040820190508181036000830152615b3d8185614f22565b90508181036020830152615b518184614f22565b90509392505050565b60006060820190508181036000830152615b748186614f22565b9050615b8360208301856144a4565b615b9060408301846144a4565b949350505050565b6000615ba38261421f565b9150615bae8361421f565b9250828202615bbc8161421f565b91508282048414831517615bd357615bd2614cb8565b5b5092915050565b7f4e6f7420656e6f75676820616e7377657220636172647320696e20746865206460008201527f65636b0000000000000000000000000000000000000000000000000000000000602082015250565b6000615c36602383614a07565b9150615c4182615bda565b604082019050919050565b60006020820190508181036000830152615c6581615c29565b9050919050565b6000615c778261421f565b915060008203615c8a57615c89614cb8565b5b600182039050919050565b7f4e487b7100000000000000000000000000000000000000000000000000000000600052605160045260246000fdfe506c617943617264202d204361726420506c617965642031737420526f756e643a20257341667465722053687566666c65202d204669727374205175657374696f6e20436172643a2025735072652053687566666c65202d20466972737420416e7377657220436172643a20257341667465722053687566666c65202d20466972737420416e7377657220436172643a2025734465636964652057696e6e657220506c617965722025732073636f7265206973202573506c617943617264202d204361726420506c6179656420326e6420526f756e643a2025735072652053687566666c65202d204669727374205175657374696f6e20436172643a202573a2646970667358221220e61ca90b652ff586a475f362938f38f40a65015dcf82f260374e53becc0a6f6164736f6c6343000814003360806040523480156200001157600080fd5b5060405162002a0838038062002a08833981810160405281019062000037919062000348565b33828281600090816200004b919062000618565b5080600190816200005d919062000618565b505050600073ffffffffffffffffffffffffffffffffffffffff168173ffffffffffffffffffffffffffffffffffffffff1603620000d55760006040517f1e4fbdf7000000000000000000000000000000000000000000000000000000008152600401620000cc919062000744565b60405180910390fd5b620000e681620000ef60201b60201c565b50505062000761565b6000600660009054906101000a900473ffffffffffffffffffffffffffffffffffffffff16905081600660006101000a81548173ffffffffffffffffffffffffffffffffffffffff021916908373ffffffffffffffffffffffffffffffffffffffff1602179055508173ffffffffffffffffffffffffffffffffffffffff168173ffffffffffffffffffffffffffffffffffffffff167f8be0079c531659141344cd1fd0a4f28419497f9722a3daafe3b4186f6b6457e060405160405180910390a35050565b6000604051905090565b600080fd5b600080fd5b600080fd5b600080fd5b6000601f19601f8301169050919050565b7f4e487b7100000000000000000000000000000000000000000000000000000000600052604160045260246000fd5b6200021e82620001d3565b810181811067ffffffffffffffff8211171562000240576200023f620001e4565b5b80604052505050565b600062000255620001b5565b905062000263828262000213565b919050565b600067ffffffffffffffff821115620002865762000285620001e4565b5b6200029182620001d3565b9050602081019050919050565b60005b83811015620002be578082015181840152602081019050620002a1565b60008484015250505050565b6000620002e1620002db8462000268565b62000249565b9050828152602081018484840111156200030057620002ff620001ce565b5b6200030d8482856200029e565b509392505050565b600082601f8301126200032d576200032c620001c9565b5b81516200033f848260208601620002ca565b91505092915050565b60008060408385031215620003625762000361620001bf565b5b600083015167ffffffffffffffff811115620003835762000382620001c4565b5b620003918582860162000315565b925050602083015167ffffffffffffffff811115620003b557620003b4620001c4565b5b620003c38582860162000315565b9150509250929050565b600081519050919050565b7f4e487b7100000000000000000000000000000000000000000000000000000000600052602260045260246000fd5b600060028204905060018216806200042057607f821691505b602082108103620004365762000435620003d8565b5b50919050565b60008190508160005260206000209050919050565b60006020601f8301049050919050565b600082821b905092915050565b600060088302620004a07fffffffffffffffffffffffffffffffffffffffffffffffffffffffffffffffff8262000461565b620004ac868362000461565b95508019841693508086168417925050509392505050565b6000819050919050565b6000819050919050565b6000620004f9620004f3620004ed84620004c4565b620004ce565b620004c4565b9050919050565b6000819050919050565b6200051583620004d8565b6200052d620005248262000500565b8484546200046e565b825550505050565b600090565b6200054462000535565b620005518184846200050a565b505050565b5b8181101562000579576200056d6000826200053a565b60018101905062000557565b5050565b601f821115620005c85762000592816200043c565b6200059d8462000451565b81016020851015620005ad578190505b620005c5620005bc8562000451565b83018262000556565b50505b505050565b600082821c905092915050565b6000620005ed60001984600802620005cd565b1980831691505092915050565b6000620006088383620005da565b9150826002028217905092915050565b6200062382620003cd565b67ffffffffffffffff8111156200063f576200063e620001e4565b5b6200064b825462000407565b620006588282856200057d565b600060209050601f8311600181146200069057600084156200067b578287015190505b620006878582620005fa565b865550620006f7565b601f198416620006a0866200043c565b60005b82811015620006ca57848901518255600182019150602085019450602081019050620006a3565b86831015620006ea5784890151620006e6601f891682620005da565b8355505b6001600288020188555050505b505050505050565b600073ffffffffffffffffffffffffffffffffffffffff82169050919050565b60006200072c82620006ff565b9050919050565b6200073e816200071f565b82525050565b60006020820190506200075b600083018462000733565b92915050565b61229780620007716000396000f3fe608060405234801561001057600080fd5b50600436106101215760003560e01c8063715018a6116100ad578063b88d4fde11610071578063b88d4fde14610306578063c87b56dd14610322578063e43252d714610352578063e985e9c51461036e578063f2fde38b1461039e57610121565b8063715018a6146102745780638da5cb5b1461027e57806395d89b411461029c5780639b19251a146102ba578063a22cb465146102ea57610121565b806323b872dd116100f457806323b872dd146101c057806340c10f19146101dc57806342842e0e146101f85780636352211e1461021457806370a082311461024457610121565b806301ffc9a71461012657806306fdde0314610156578063081812fc14610174578063095ea7b3146101a4575b600080fd5b610140600480360381019061013b9190611a4f565b6103ba565b60405161014d9190611a97565b60405180910390f35b61015e61049c565b60405161016b9190611b42565b60405180910390f35b61018e60048036038101906101899190611b9a565b61052e565b60405161019b9190611c08565b60405180910390f35b6101be60048036038101906101b99190611c4f565b61054a565b005b6101da60048036038101906101d59190611c8f565b610560565b005b6101f660048036038101906101f19190611c4f565b610662565b005b610212600480360381019061020d9190611c8f565b610705565b005b61022e60048036038101906102299190611b9a565b610725565b60405161023b9190611c08565b60405180910390f35b61025e60048036038101906102599190611ce2565b610737565b60405161026b9190611d1e565b60405180910390f35b61027c6107f1565b005b610286610805565b6040516102939190611c08565b60405180910390f35b6102a461082f565b6040516102b19190611b42565b60405180910390f35b6102d460048036038101906102cf9190611ce2565b6108c1565b6040516102e19190611a97565b60405180910390f35b61030460048036038101906102ff9190611d65565b6108e1565b005b610320600480360381019061031b9190611eda565b6108f7565b005b61033c60048036038101906103379190611b9a565b610914565b6040516103499190611b42565b60405180910390f35b61036c60048036038101906103679190611ce2565b61097d565b005b61038860048036038101906103839190611f5d565b6109e0565b6040516103959190611a97565b60405180910390f35b6103b860048036038101906103b39190611ce2565b610a74565b005b60007f80ac58cd000000000000000000000000000000000000000000000000000000007bffffffffffffffffffffffffffffffffffffffffffffffffffffffff1916827bffffffffffffffffffffffffffffffffffffffffffffffffffffffff1916148061048557507f5b5e139f000000000000000000000000000000000000000000000000000000007bffffffffffffffffffffffffffffffffffffffffffffffffffffffff1916827bffffffffffffffffffffffffffffffffffffffffffffffffffffffff1916145b80610495575061049482610afa565b5b9050919050565b6060600080546104ab90611fcc565b80601f01602080910402602001604051908101604052809291908181526020018280546104d790611fcc565b80156105245780601f106104f957610100808354040283529160200191610524565b820191906000526020600020905b81548152906001019060200180831161050757829003601f168201915b5050505050905090565b600061053982610b64565b5061054382610bec565b9050919050565b61055c8282610557610c29565b610c31565b5050565b600073ffffffffffffffffffffffffffffffffffffffff168273ffffffffffffffffffffffffffffffffffffffff16036105d25760006040517f64a0ae920000000000000000000000000000000000000000000000000000000081526004016105c99190611c08565b60405180910390fd5b60006105e683836105e1610c29565b610c43565b90508373ffffffffffffffffffffffffffffffffffffffff168173ffffffffffffffffffffffffffffffffffffffff161461065c578382826040517f64283d7b00000000000000000000000000000000000000000000000000000000815260040161065393929190611ffd565b60405180910390fd5b50505050565b600760008373ffffffffffffffffffffffffffffffffffffffff1673ffffffffffffffffffffffffffffffffffffffff16815260200190815260200160002060009054906101000a900460ff166106ee576040517f08c379a00000000000000000000000000000000000000000000000000000000081526004016106e5906120a6565b60405180910390fd5b6106f88282610e5d565b61070182610f56565b5050565b610720838383604051806020016040528060008152506108f7565b505050565b600061073082610b64565b9050919050565b60008073ffffffffffffffffffffffffffffffffffffffff168273ffffffffffffffffffffffffffffffffffffffff16036107aa5760006040517f89c62b640000000000000000000000000000000000000000000000000000000081526004016107a19190611c08565b60405180910390fd5b600360008373ffffffffffffffffffffffffffffffffffffffff1673ffffffffffffffffffffffffffffffffffffffff168152602001908152602001600020549050919050565b6107f9610fb1565b6108036000611038565b565b6000600660009054906101000a900473ffffffffffffffffffffffffffffffffffffffff16905090565b60606001805461083e90611fcc565b80601f016020809104026020016040519081016040528092919081815260200182805461086a90611fcc565b80156108b75780601f1061088c576101008083540402835291602001916108b7565b820191906000526020600020905b81548152906001019060200180831161089a57829003601f168201915b5050505050905090565b60076020528060005260406000206000915054906101000a900460ff1681565b6108f36108ec610c29565b83836110fe565b5050565b610902848484610560565b61090e8484848461126d565b50505050565b606061091f82610b64565b50600061092a611424565b9050600081511161094a5760405180602001604052806000815250610975565b806109548461143b565b604051602001610965929190612102565b6040516020818303038152906040525b915050919050565b610985610fb1565b6001600760008373ffffffffffffffffffffffffffffffffffffffff1673ffffffffffffffffffffffffffffffffffffffff16815260200190815260200160002060006101000a81548160ff02191690831515021790555050565b6000600560008473ffffffffffffffffffffffffffffffffffffffff1673ffffffffffffffffffffffffffffffffffffffff16815260200190815260200160002060008373ffffffffffffffffffffffffffffffffffffffff1673ffffffffffffffffffffffffffffffffffffffff16815260200190815260200160002060009054906101000a900460ff16905092915050565b610a7c610fb1565b600073ffffffffffffffffffffffffffffffffffffffff168173ffffffffffffffffffffffffffffffffffffffff1603610aee5760006040517f1e4fbdf7000000000000000000000000000000000000000000000000000000008152600401610ae59190611c08565b60405180910390fd5b610af781611038565b50565b60007f01ffc9a7000000000000000000000000000000000000000000000000000000007bffffffffffffffffffffffffffffffffffffffffffffffffffffffff1916827bffffffffffffffffffffffffffffffffffffffffffffffffffffffff1916149050919050565b600080610b7083611509565b9050600073ffffffffffffffffffffffffffffffffffffffff168173ffffffffffffffffffffffffffffffffffffffff1603610be357826040517f7e273289000000000000000000000000000000000000000000000000000000008152600401610bda9190611d1e565b60405180910390fd5b80915050919050565b60006004600083815260200190815260200160002060009054906101000a900473ffffffffffffffffffffffffffffffffffffffff169050919050565b600033905090565b610c3e8383836001611546565b505050565b600080610c4f84611509565b9050600073ffffffffffffffffffffffffffffffffffffffff168373ffffffffffffffffffffffffffffffffffffffff1614610c9157610c9081848661170b565b5b600073ffffffffffffffffffffffffffffffffffffffff168173ffffffffffffffffffffffffffffffffffffffff1614610d2257610cd3600085600080611546565b6001600360008373ffffffffffffffffffffffffffffffffffffffff1673ffffffffffffffffffffffffffffffffffffffff168152602001908152602001600020600082825403925050819055505b600073ffffffffffffffffffffffffffffffffffffffff168573ffffffffffffffffffffffffffffffffffffffff1614610da5576001600360008773ffffffffffffffffffffffffffffffffffffffff1673ffffffffffffffffffffffffffffffffffffffff168152602001908152602001600020600082825401925050819055505b846002600086815260200190815260200160002060006101000a81548173ffffffffffffffffffffffffffffffffffffffff021916908373ffffffffffffffffffffffffffffffffffffffff160217905550838573ffffffffffffffffffffffffffffffffffffffff168273ffffffffffffffffffffffffffffffffffffffff167fddf252ad1be2c89b69c2b068fc378daa952ba7f163c4a11628f55a4df523b3ef60405160405180910390a4809150509392505050565b600073ffffffffffffffffffffffffffffffffffffffff168273ffffffffffffffffffffffffffffffffffffffff1603610ecf5760006040517f64a0ae92000000000000000000000000000000000000000000000000000000008152600401610ec69190611c08565b60405180910390fd5b6000610edd83836000610c43565b9050600073ffffffffffffffffffffffffffffffffffffffff168173ffffffffffffffffffffffffffffffffffffffff1614610f515760006040517f73c6ac6e000000000000000000000000000000000000000000000000000000008152600401610f489190611c08565b60405180910390fd5b505050565b6000600760008373ffffffffffffffffffffffffffffffffffffffff1673ffffffffffffffffffffffffffffffffffffffff16815260200190815260200160002060006101000a81548160ff02191690831515021790555050565b610fb9610c29565b73ffffffffffffffffffffffffffffffffffffffff16610fd7610805565b73ffffffffffffffffffffffffffffffffffffffff161461103657610ffa610c29565b6040517f118cdaa700000000000000000000000000000000000000000000000000000000815260040161102d9190611c08565b60405180910390fd5b565b6000600660009054906101000a900473ffffffffffffffffffffffffffffffffffffffff16905081600660006101000a81548173ffffffffffffffffffffffffffffffffffffffff021916908373ffffffffffffffffffffffffffffffffffffffff1602179055508173ffffffffffffffffffffffffffffffffffffffff168173ffffffffffffffffffffffffffffffffffffffff167f8be0079c531659141344cd1fd0a4f28419497f9722a3daafe3b4186f6b6457e060405160405180910390a35050565b600073ffffffffffffffffffffffffffffffffffffffff168273ffffffffffffffffffffffffffffffffffffffff160361116f57816040517f5b08ba180000000000000000000000000000000000000000000000000000000081526004016111669190611c08565b60405180910390fd5b80600560008573ffffffffffffffffffffffffffffffffffffffff1673ffffffffffffffffffffffffffffffffffffffff16815260200190815260200160002060008473ffffffffffffffffffffffffffffffffffffffff1673ffffffffffffffffffffffffffffffffffffffff16815260200190815260200160002060006101000a81548160ff0219169083151502179055508173ffffffffffffffffffffffffffffffffffffffff168373ffffffffffffffffffffffffffffffffffffffff167f17307eab39ab6107e8899845ad3d59bd9653f200f220920489ca2b5937696c31836040516112609190611a97565b60405180910390a3505050565b60008373ffffffffffffffffffffffffffffffffffffffff163b111561141e578273ffffffffffffffffffffffffffffffffffffffff1663150b7a026112b1610c29565b8685856040518563ffffffff1660e01b81526004016112d3949392919061217b565b6020604051808303816000875af192505050801561130f57506040513d601f19601f8201168201806040525081019061130c91906121dc565b60015b611393573d806000811461133f576040519150601f19603f3d011682016040523d82523d6000602084013e611344565b606091505b50600081510361138b57836040517f64a0ae920000000000000000000000000000000000000000000000000000000081526004016113829190611c08565b60405180910390fd5b805181602001fd5b63150b7a0260e01b7bffffffffffffffffffffffffffffffffffffffffffffffffffffffff1916817bffffffffffffffffffffffffffffffffffffffffffffffffffffffff19161461141c57836040517f64a0ae920000000000000000000000000000000000000000000000000000000081526004016114139190611c08565b60405180910390fd5b505b50505050565b606060405180602001604052806000815250905090565b60606000600161144a846117cf565b01905060008167ffffffffffffffff81111561146957611468611daf565b5b6040519080825280601f01601f19166020018201604052801561149b5781602001600182028036833780820191505090505b509050600082602001820190505b6001156114fe578080600190039150507f3031323334353637383961626364656600000000000000000000000000000000600a86061a8153600a85816114f2576114f1612209565b5b049450600085036114a9575b819350505050919050565b60006002600083815260200190815260200160002060009054906101000a900473ffffffffffffffffffffffffffffffffffffffff169050919050565b808061157f5750600073ffffffffffffffffffffffffffffffffffffffff168273ffffffffffffffffffffffffffffffffffffffff1614155b156116b357600061158f84610b64565b9050600073ffffffffffffffffffffffffffffffffffffffff168373ffffffffffffffffffffffffffffffffffffffff16141580156115fa57508273ffffffffffffffffffffffffffffffffffffffff168173ffffffffffffffffffffffffffffffffffffffff1614155b801561160d575061160b81846109e0565b155b1561164f57826040517fa9fbf51f0000000000000000000000000000000000000000000000000000000081526004016116469190611c08565b60405180910390fd5b81156116b157838573ffffffffffffffffffffffffffffffffffffffff168273ffffffffffffffffffffffffffffffffffffffff167f8c5be1e5ebec7d5bd14f71427d1e84f3dd0314c0f7b2291e5b200ac8c7c3b92560405160405180910390a45b505b836004600085815260200190815260200160002060006101000a81548173ffffffffffffffffffffffffffffffffffffffff021916908373ffffffffffffffffffffffffffffffffffffffff16021790555050505050565b611716838383611922565b6117ca57600073ffffffffffffffffffffffffffffffffffffffff168373ffffffffffffffffffffffffffffffffffffffff160361178b57806040517f7e2732890000000000000000000000000000000000000000000000000000000081526004016117829190611d1e565b60405180910390fd5b81816040517f177e802f0000000000000000000000000000000000000000000000000000000081526004016117c1929190612238565b60405180910390fd5b505050565b600080600090507a184f03e93ff9f4daa797ed6e38ed64bf6a1f010000000000000000831061182d577a184f03e93ff9f4daa797ed6e38ed64bf6a1f010000000000000000838161182357611822612209565b5b0492506040810190505b6d04ee2d6d415b85acef8100000000831061186a576d04ee2d6d415b85acef810000000083816118605761185f612209565b5b0492506020810190505b662386f26fc10000831061189957662386f26fc10000838161188f5761188e612209565b5b0492506010810190505b6305f5e10083106118c2576305f5e10083816118b8576118b7612209565b5b0492506008810190505b61271083106118e75761271083816118dd576118dc612209565b5b0492506004810190505b6064831061190a5760648381611900576118ff612209565b5b0492506002810190505b600a8310611919576001810190505b80915050919050565b60008073ffffffffffffffffffffffffffffffffffffffff168373ffffffffffffffffffffffffffffffffffffffff16141580156119da57508273ffffffffffffffffffffffffffffffffffffffff168473ffffffffffffffffffffffffffffffffffffffff16148061199b575061199a84846109e0565b5b806119d957508273ffffffffffffffffffffffffffffffffffffffff166119c183610bec565b73ffffffffffffffffffffffffffffffffffffffff16145b5b90509392505050565b6000604051905090565b600080fd5b600080fd5b60007fffffffff0000000000000000000000000000000000000000000000000000000082169050919050565b611a2c816119f7565b8114611a3757600080fd5b50565b600081359050611a4981611a23565b92915050565b600060208284031215611a6557611a646119ed565b5b6000611a7384828501611a3a565b91505092915050565b60008115159050919050565b611a9181611a7c565b82525050565b6000602082019050611aac6000830184611a88565b92915050565b600081519050919050565b600082825260208201905092915050565b60005b83811015611aec578082015181840152602081019050611ad1565b60008484015250505050565b6000601f19601f8301169050919050565b6000611b1482611ab2565b611b1e8185611abd565b9350611b2e818560208601611ace565b611b3781611af8565b840191505092915050565b60006020820190508181036000830152611b5c8184611b09565b905092915050565b6000819050919050565b611b7781611b64565b8114611b8257600080fd5b50565b600081359050611b9481611b6e565b92915050565b600060208284031215611bb057611baf6119ed565b5b6000611bbe84828501611b85565b91505092915050565b600073ffffffffffffffffffffffffffffffffffffffff82169050919050565b6000611bf282611bc7565b9050919050565b611c0281611be7565b82525050565b6000602082019050611c1d6000830184611bf9565b92915050565b611c2c81611be7565b8114611c3757600080fd5b50565b600081359050611c4981611c23565b92915050565b60008060408385031215611c6657611c656119ed565b5b6000611c7485828601611c3a565b9250506020611c8585828601611b85565b9150509250929050565b600080600060608486031215611ca857611ca76119ed565b5b6000611cb686828701611c3a565b9350506020611cc786828701611c3a565b9250506040611cd886828701611b85565b9150509250925092565b600060208284031215611cf857611cf76119ed565b5b6000611d0684828501611c3a565b91505092915050565b611d1881611b64565b82525050565b6000602082019050611d336000830184611d0f565b92915050565b611d4281611a7c565b8114611d4d57600080fd5b50565b600081359050611d5f81611d39565b92915050565b60008060408385031215611d7c57611d7b6119ed565b5b6000611d8a85828601611c3a565b9250506020611d9b85828601611d50565b9150509250929050565b600080fd5b600080fd5b7f4e487b7100000000000000000000000000000000000000000000000000000000600052604160045260246000fd5b611de782611af8565b810181811067ffffffffffffffff82111715611e0657611e05611daf565b5b80604052505050565b6000611e196119e3565b9050611e258282611dde565b919050565b600067ffffffffffffffff821115611e4557611e44611daf565b5b611e4e82611af8565b9050602081019050919050565b82818337600083830152505050565b6000611e7d611e7884611e2a565b611e0f565b905082815260208101848484011115611e9957611e98611daa565b5b611ea4848285611e5b565b509392505050565b600082601f830112611ec157611ec0611da5565b5b8135611ed1848260208601611e6a565b91505092915050565b60008060008060808587031215611ef457611ef36119ed565b5b6000611f0287828801611c3a565b9450506020611f1387828801611c3a565b9350506040611f2487828801611b85565b925050606085013567ffffffffffffffff811115611f4557611f446119f2565b5b611f5187828801611eac565b91505092959194509250565b60008060408385031215611f7457611f736119ed565b5b6000611f8285828601611c3a565b9250506020611f9385828601611c3a565b9150509250929050565b7f4e487b7100000000000000000000000000000000000000000000000000000000600052602260045260246000fd5b60006002820490506001821680611fe457607f821691505b602082108103611ff757611ff6611f9d565b5b50919050565b60006060820190506120126000830186611bf9565b61201f6020830185611d0f565b61202c6040830184611bf9565b949350505050565b7f41646472657373206e6f742077686974656c6973746564206f7220616c72656160008201527f6479206d696e7465640000000000000000000000000000000000000000000000602082015250565b6000612090602983611abd565b915061209b82612034565b604082019050919050565b600060208201905081810360008301526120bf81612083565b9050919050565b600081905092915050565b60006120dc82611ab2565b6120e681856120c6565b93506120f6818560208601611ace565b80840191505092915050565b600061210e82856120d1565b915061211a82846120d1565b91508190509392505050565b600081519050919050565b600082825260208201905092915050565b600061214d82612126565b6121578185612131565b9350612167818560208601611ace565b61217081611af8565b840191505092915050565b60006080820190506121906000830187611bf9565b61219d6020830186611bf9565b6121aa6040830185611d0f565b81810360608301526121bc8184612142565b905095945050505050565b6000815190506121d681611a23565b92915050565b6000602082840312156121f2576121f16119ed565b5b6000612200848285016121c7565b91505092915050565b7f4e487b7100000000000000000000000000000000000000000000000000000000600052601260045260246000fd5b600060408201905061224d6000830185611bf9565b61225a6020830184611d0f565b939250505056fea264697066735822122079189ae9681ef3fe30a36ff67f8e1855c80c6ededcec653db129e9ec6c61018664736f6c63430008140033",
  "linkReferences": {},
  "deployedLinkReferences": {}
}