{
  "_format": "hh-sol-artifact-1",
  "contractName": "Decks",
  "sourceName": "contracts/Decks.sol",
  "abi": [
    {
      "inputs": [],
      "name": "getAnswersDeck",
      "outputs": [
        {
          "internalType": "string[]",
          "name": "",
          "type": "string[]"
        }
      ],
      "stateMutability": "view",
      "type": "function"
    },
    {
      "inputs": [
        {
          "internalType": "uint256",
          "name": "index",
          "type": "uint256"
        },
        {
          "internalType": "bool",
          "name": "isQuestion",
          "type": "bool"
        }
      ],
      "name": "getEntry",
      "outputs": [
        {
          "internalType": "string",
          "name": "",
          "type": "string"
        }
      ],
      "stateMutability": "view",
      "type": "function"
    },
    {
      "inputs": [],
      "name": "getQuestionsDeck",
      "outputs": [
        {
          "internalType": "string[]",
          "name": "",
          "type": "string[]"
        }
      ],
      "stateMutability": "view",
      "type": "function"
    }
  ],
  "bytecode": "0x6080604052604051806102800160405280604051806060016040528060368152602001620016f26036913981526020016040518060800160405280605b8152602001620013dd605b91398152602001604051806080016040528060528152602001620016206052913981526020016040518060800160405280604481526020016200153560449139815260200160405180608001604052806049815260200162001394604991398152602001604051806060016040528060408152602001620017526040913981526020016040518060800160405280604881526020016200145a60489139815260200160405180608001604052806059815260200162001817605991398152602001604051806060016040528060388152602001620016ba6038913981526020016040518060800160405280604f8152602001620018b1604f91398152602001604051806060016040528060368152602001620012e8603691398152602001604051806080016040528060498152602001620015d76049913981526020016040518060800160405280604e815260200162001346604e913981526020016040518060600160405280603981526020016200159e603991398152602001604051806080016040528060418152602001620017d660419139815260200160405180608001604052806048815260200162001672604891398152602001604051806080016040528060438152602001620014f2604391398152602001604051806080016040528060508152602001620014a260509139815260200160405180608001604052806041815260200162001870604191398152602001604051806080016040528060448152602001620017926044913981525060009060146200028c929190620006ea565b506040518061028001604052806040518060400160405280601a81526020017f41206275636b6574206f6620667269656420636869636b656e2e00000000000081525081526020016040518060400160405280601a81526020017f556e636f6e74726f6c6c61626c6520666c6174756c656e63652e00000000000081525081526020016040518060600160405280602a815260200162001728602a913981526020016040518060400160405280601481526020017f4120736173737920626c61636b20776f6d616e2e00000000000000000000000081525081526020016040518060400160405280600881526020017f507570706965732100000000000000000000000000000000000000000000000081525081526020016040518060400160405280601181526020017f527574686c657373206d6f636b6572792e0000000000000000000000000000008152508152602001604051806060016040528060228152602001620014386022913981526020016040518060400160405280601b81526020017f41206c69666574696d6520737570706c79206f66206261636f6e2e000000000081525081526020016040518060400160405280601781526020017f496e617070726f70726961746520796f64656c696e672e0000000000000000008152508152602001604051806060016040528060258152602001620015796025913981526020016040518060400160405280600a81526020017f54686520666f7263652e0000000000000000000000000000000000000000000081525081526020016040518060400160405280601981526020017f41206d6f6e6b657920736d6f6b696e6720612063696761722e0000000000000081525081526020016040518060400160405280601381526020017f4d792062726f7773657220686973746f72792e0000000000000000000000000081525081526020016040518060400160405280601181526020017f4120726f626f74207570726973696e672e00000000000000000000000000000081525081526020016040518060400160405280601081526020017f4e75636c6561722066616c6c6f75742e0000000000000000000000000000000081525081526020016040518060600160405280602881526020016200131e6028913981526020016040518060400160405280601a81526020017f4120666c616d696e6720626167206f6620646f6720706f6f702e00000000000081525081526020016040518060400160405280601381526020017f5468652067686f7374206f6620456c7669732e0000000000000000000000000081525081526020016040518060400160405280601881526020017f416e2061776b776172642066616d696c792070686f746f2e000000000000000081525081526020016040518060400160405280601b81526020017f5468652073776565742072656c65617365206f662064656174682e00000000008152508152506001906014620006d5929190620006ea565b50348015620006e357600080fd5b5062000b38565b82805482825590600052602060002090810192821562000737579160200282015b828111156200073657825182908162000725919062000a51565b50916020019190600101906200070b565b5b5090506200074691906200074a565b5090565b5b808211156200076e576000818162000764919062000772565b506001016200074b565b5090565b508054620007809062000840565b6000825580601f10620007945750620007b5565b601f016020900490600052602060002090810190620007b49190620007b8565b5b50565b5b80821115620007d3576000816000905550600101620007b9565b5090565b600081519050919050565b7f4e487b7100000000000000000000000000000000000000000000000000000000600052604160045260246000fd5b7f4e487b7100000000000000000000000000000000000000000000000000000000600052602260045260246000fd5b600060028204905060018216806200085957607f821691505b6020821081036200086f576200086e62000811565b5b50919050565b60008190508160005260206000209050919050565b60006020601f8301049050919050565b600082821b905092915050565b600060088302620008d97fffffffffffffffffffffffffffffffffffffffffffffffffffffffffffffffff826200089a565b620008e586836200089a565b95508019841693508086168417925050509392505050565b6000819050919050565b6000819050919050565b6000620009326200092c6200092684620008fd565b62000907565b620008fd565b9050919050565b6000819050919050565b6200094e8362000911565b620009666200095d8262000939565b848454620008a7565b825550505050565b600090565b6200097d6200096e565b6200098a81848462000943565b505050565b5b81811015620009b257620009a660008262000973565b60018101905062000990565b5050565b601f82111562000a0157620009cb8162000875565b620009d6846200088a565b81016020851015620009e6578190505b620009fe620009f5856200088a565b8301826200098f565b50505b505050565b600082821c905092915050565b600062000a266000198460080262000a06565b1980831691505092915050565b600062000a41838362000a13565b9150826002028217905092915050565b62000a5c82620007d7565b67ffffffffffffffff81111562000a785762000a77620007e2565b5b62000a84825462000840565b62000a91828285620009b6565b600060209050601f83116001811462000ac9576000841562000ab4578287015190505b62000ac0858262000a33565b86555062000b30565b601f19841662000ad98662000875565b60005b8281101562000b035784890151825560018201915060208501945060208101905062000adc565b8683101562000b23578489015162000b1f601f89168262000a13565b8355505b6001600288020188555050505b505050505050565b6107a08062000b486000396000f3fe608060405234801561001057600080fd5b50600436106100415760003560e01c8063304adedf1461004657806363ff39d3146100645780638d3bbb6714610082575b600080fd5b61004e6100b2565b60405161005b919061053a565b60405180910390f35b61006c61018b565b604051610079919061053a565b60405180910390f35b61009c600480360381019061009791906105cf565b610264565b6040516100a99190610659565b60405180910390f35b60606001805480602002602001604051908101604052809291908181526020016000905b828210156101825783829060005260206000200180546100f5906106aa565b80601f0160208091040260200160405190810160405280929190818152602001828054610121906106aa565b801561016e5780601f106101435761010080835404028352916020019161016e565b820191906000526020600020905b81548152906001019060200180831161015157829003601f168201915b5050505050815260200190600101906100d6565b50505050905090565b60606000805480602002602001604051908101604052809291908181526020016000905b8282101561025b5783829060005260206000200180546101ce906106aa565b80601f01602080910402602001604051908101604052809291908181526020018280546101fa906106aa565b80156102475780601f1061021c57610100808354040283529160200191610247565b820191906000526020600020905b81548152906001019060200180831161022a57829003601f168201915b5050505050815260200190600101906101af565b50505050905090565b6060811561032957600080805490508461027e919061070a565b8154811061028f5761028e61073b565b5b9060005260206000200180546102a4906106aa565b80601f01602080910402602001604051908101604052809291908181526020018280546102d0906106aa565b801561031d5780601f106102f25761010080835404028352916020019161031d565b820191906000526020600020905b81548152906001019060200180831161030057829003601f168201915b505050505090506103e2565b600180805490508461033b919061070a565b8154811061034c5761034b61073b565b5b906000526020600020018054610361906106aa565b80601f016020809104026020016040519081016040528092919081815260200182805461038d906106aa565b80156103da5780601f106103af576101008083540402835291602001916103da565b820191906000526020600020905b8154815290600101906020018083116103bd57829003601f168201915b505050505090505b92915050565b600081519050919050565b600082825260208201905092915050565b6000819050602082019050919050565b600081519050919050565b600082825260208201905092915050565b60005b8381101561044e578082015181840152602081019050610433565b60008484015250505050565b6000601f19601f8301169050919050565b600061047682610414565b610480818561041f565b9350610490818560208601610430565b6104998161045a565b840191505092915050565b60006104b0838361046b565b905092915050565b6000602082019050919050565b60006104d0826103e8565b6104da81856103f3565b9350836020820285016104ec85610404565b8060005b85811015610528578484038952815161050985826104a4565b9450610514836104b8565b925060208a019950506001810190506104f0565b50829750879550505050505092915050565b6000602082019050818103600083015261055481846104c5565b905092915050565b600080fd5b6000819050919050565b61057481610561565b811461057f57600080fd5b50565b6000813590506105918161056b565b92915050565b60008115159050919050565b6105ac81610597565b81146105b757600080fd5b50565b6000813590506105c9816105a3565b92915050565b600080604083850312156105e6576105e561055c565b5b60006105f485828601610582565b9250506020610605858286016105ba565b9150509250929050565b600082825260208201905092915050565b600061062b82610414565b610635818561060f565b9350610645818560208601610430565b61064e8161045a565b840191505092915050565b600060208201905081810360008301526106738184610620565b905092915050565b7f4e487b7100000000000000000000000000000000000000000000000000000000600052602260045260246000fd5b600060028204905060018216806106c257607f821691505b6020821081036106d5576106d461067b565b5b50919050565b7f4e487b7100000000000000000000000000000000000000000000000000000000600052601260045260246000fd5b600061071582610561565b915061072083610561565b9250826107305761072f6106db565b5b828206905092915050565b7f4e487b7100000000000000000000000000000000000000000000000000000000600052603260045260246000fdfea26469706673582212209b5c44ccbf6a177c59d7c3209767db2285dd98cc9bac099d2e1d0d32e35d613664736f6c63430008140033466f72676574206469616d6f6e64732c205f5f5f5f5f5f5f5f5f5f5f5f2069732061206769726c2773206265737420667269656e642e566567616e206f7074696f6e7320617420616e20616c6c2d796f752d63616e2d656174204242512e4966204920636f756c64206272696e67206f6e6520686973746f726963616c20666967757265206261636b20746f206c6966652c20697420776f756c64206265205f5f5f5f5f5f5f5f5f5f5f5f2e576861742773207468652073656372657420696e6772656469656e7420696e206d792061776172642d77696e6e696e672072656369706520666f72205f5f5f5f5f5f5f5f5f5f5f5f3f496e206d79206175746f62696f6772617068792c20746865207469746c65206f662074686520666972737420636861707465722077696c6c20626520274d79204c6f7665204166666169722077697468205f5f5f5f5f5f5f5f2e274772616e646d61277320736563726574206d6f6f6e7368696e65207265636970652e5768656e2049276d206665656c696e6720646f776e2c2049206368656572206d7973656c66207570206279207468696e6b696e672061626f7574205f5f5f5f5f5f5f5f5f5f5f5f2e4966204920636f756c64206861766520616e79207375706572706f7765722c20697420776f756c6420626520746865206162696c69747920746f20636f6e74726f6c205f5f5f5f5f5f5f5f5f5f5f5f2e57686174277320746865206c61746573742066617368696f6e207472656e643f205f5f5f5f5f5f5f5f5f5f5f5f2d696e737069726564206163636573736f726965732e546865206c617465737420736369656e746966696320646973636f766572793a205f5f5f5f5f5f5f5f5f5f5f5f2063617573657320676c6f62616c207761726d696e672e41206d61676963616c20756e69636f726e20776974682061206461726b207365637265742e496e7374656164206f6620612068616e647368616b652c20492067726565742070656f706c652077697468205f5f5f5f5f5f5f5f5f5f5f5f2e546865207363686f6f6c2074616c656e742073686f772077617320776f6e2062792061207374756e6e696e6720706572666f726d616e6365206f66205f5f5f5f5f5f5f5f5f5f5f5f2e496e7374656164206f6620736f6c76696e6720776f726c642068756e6765722c2049277665206465636964656420746f20666f637573206d79206566666f727473206f6e205f5f5f5f5f5f5f5f5f5f5f5f2e49206c696b65206d7920636f66666565206c696b652049206c696b65206d792072656c6174696f6e73686970733a2066696c6c65642077697468205f5f5f5f5f5f5f5f5f5f5f5f2e57686174277320746865206d6f737420696e617070726f7072696174652074696d6520746f20706c617920746865204d61636172656e613f57686174277320746865206e65787420626967207265616c6974792054562073686f773f20275f5f5f5f5f5f5f5f5f20576172732e2754686520696e6576697461626c652068656174206465617468206f662074686520756e6976657273652e54686520676f7665726e6d656e7420686173206465636c61726564205f5f5f5f5f5f5f5f5f5f5f5f2061207075626c6963206865616c74682068617a6172642e5468652073656372657420746f2061206c6f6e6720616e64206861707079206c6966652069732061206461696c7920646f7365206f66205f5f5f5f5f5f5f5f5f5f5f5f2e54686520626573742077617920746f207275696e20612066616d696c792064696e6e657220697320746f206272696e67207570205f5f5f5f5f5f5f5f5f5f5f5f2e546865206e65772073656c662d68656c7020626f6f6b20746861742773207377656570696e6720746865206e6174696f6e3a2027556e6c6f636b696e672074686520506f776572206f66205f5f5f5f5f5f5f5f5f5f5f5f2e274d79206175746f62696f6772617068792077696c6c206265207469746c65642027546865204368726f6e69636c6573206f66205f5f5f5f5f5f5f5f5f5f5f5f2e274d79207468657261706973742073617973206d7920697373756573207374656d2066726f6d206d7920756e6865616c746879206f6273657373696f6e2077697468205f5f5f5f5f5f5f5f5f5f5f5f2e",
  "linkReferences": {},
  "deployedLinkReferences": {}
}